:040000000BEF00F012
:100008007E82FACF80F0FBCF81F070ED24F08FEF85
:1000180025F0D10E01019F6F000E0101A06F08EFBE
:1000280007F0250E0101B619D8B40BD0CDC0D9FF01
:10003800CEC0DAFFB6C1DFFF0001CD4BCE2B08EFF3
:1000480007F0000E0101B36F000EB26F000E010140
:10005800AE6F000EAD6F05D00101AD850001CF4B2D
:10006800D02BCFC0F6FFD0C0F7FFF86A0800F550D4
:10007800300AD8B4F1D7CFC0F6FFD0C0F7FFF86A7E
:100088000800F55055EC2AF0D8A042D0000E010126
:10009800B36F000EB26FB2C19CF0B3C19DF0000EF9
:1000A80000019F6F0A0E9E6FADEC29F09CC0B2F163
:1000B8009DC0B3F1D00E0101946FFF0E0101956F41
:1000C800CFC0F6FFD0C0F7FFF86A0800F55001016D
:1000D800966F976B01019451010196270101955183
:1000E80001019723010196510101B227010197519E
:1000F8000101B3230001CF4BD02BCFC0F6FFD0C0F6
:10010800F7FFF86A0800F55055EC2AF0D8B0C3D7C5
:10011800CFC0F6FFD0C0F7FFF86A0800F5502E0AE6
:10012800D8A43BD00101AE8D0001CF4BD02B000EDF
:100138000101B56F000EB46F24D0B4C19CF0B5C1F5
:100148009DF0000E00019F6F0A0E9E6FADEC29F026
:10015800CFC0F6FFD0C0F7FFF86A0800F5500001DD
:100168009C27000E00019D23D00E00019C25010153
:10017800B46FFF0E00019D210101B56F0001CF4B47
:10018800D02BCFC0F6FFD0C0F7FFF86A0800F550B3
:1001980055EC2AF0D8A0B9D0D0D7000E0101B56F20
:1001A800000EB46F0101AE89B0D00101AE85CCD08C
:1001B8009FC1D9FFA0C1DAFFDECF9DF1DDCF9EF14F
:1001C800020E01019F27000EA02301019D5101018C
:1001D8009E11D8A406D0F20E01019D6FFF0E0101F9
:1001E8009E6F000E0101A26F000EA16F03D00101E6
:1001F800A14BA22B0101A15101019D250101946F81
:100208000101A25101019E210101956F94C1F6FFE0
:1002180095C1F7FF000EF86E0F0EF76403D00800C3
:10022800F55005D0F6CFE1FFF7CFE2FFE750000920
:10023800D8A4DDD70101B4510101B511D8B40ED04D
:100248000101A1510101B45D0101A2510101B5599A
:10025800D8B004D0B4C1A1F1B5C1A2F10101B25125
:100268000101A15D0101B3510101A259D8B009D022
:100278000101A1510101B25F0101A2510101B35B6A
:100288000FD0000E0101B36F000EB26F09D0CDC0C0
:10029800D9FFCEC0DAFF200EDF6E0001CD4BCE2B8A
:1002A8000101B207D8A0B3070101B229F0E10101A9
:1002B800B329D8B41DD0EBD79DC1F6FF9EC1F7FF77
:1002C800000EF86ECDC0D9FFCEC0DAFF0F0EF7646E
:1002D80003D00800F55005D0F6CFE1FFF7CFE2FFD5
:1002E800E750DF6E01019D4B9E2B0001CD4BCE2BBD
:1002F8000101A107D8A0A2070101A129DDE101019F
:10030800A229D8B408EF07F0D7D7CFC0F6FFD0C0DE
:10031800F7FF0001CF4BD02BF86A0800F5CFB6F1F4
:100328000101B651000AD8B418EF07F0640AD8B42E
:100338000BD0020AD8B439D70F0AD8B405D01A0A94
:10034800D8B436D708EF07F0070E0101AE15D8B4B8
:10035800BDD30101AEA905D0000E0101B56F060E8F
:10036800B46F9FC1D9FFA0C1DAFFDECFAFF1DECFF6
:10037800B0F1DDCFB1F1030E01019F27000EA023DC
:100388000101B1AF11D0AFC18EF0B0C18FF0B1C1D2
:1003980090F0E1EC29F08EC0AFF18FC0B0F190C0C1
:1003A800B1F1030E0101AD13000E0101AC6F000E97
:1003B800AB6F0101AF510101B0110101B111D8B406
:1003C8009BD0820E0101946FFF0E0101956FAFC1A2
:1003D80096F1B0C197F1B1C198F1B2C199F1100E7F
:1003E80006D00101D8909933983397339633E82E85
:1003F800F8D701019651010194250101AB6F000E58
:10040800010195210101AC6F0101AB07D8A0AC0730
:10041800ABC19CF0ACC19DF0000E00019F6F030EB4
:100428009E6FADEC29F09CC0ABF19DC0ACF1ABC1A7
:1004380094F0ACC195F0000E0001976F0A0E966F0C
:10044800BEEC22F094C0ABF195C0ACF10101ACAFA9
:1004580004D00101AB07D8A0AC070101AB510008DB
:1004680033EC10F0B1C0A3F1B2C0A4F1B3C0A5F150
:10047800A3C1A2F0A4C1A3F0A5C1A4F0AFC1A5F087
:10048800B0C1A6F0B1C1A7F0EFEC1DF0A2C0A3F176
:10049800A3C0A4F1A4C0A5F1A3C18EF0A4C18FF09C
:1004A800A5C190F0000E0001916F800E0001926FBF
:1004B8003F0E0001936F5AEC22F00001D8B005D02E
:1004C8000101AB07D8A0AC0717D0A3C18EF0A4C117
:1004D8008FF0A5C190F0000E0001916F200E000171
:1004E800926F410E0001936F5AEC22F00001D8A0E0
:1004F80003D00101AB4BAC2B0101B5BF08D0010102
:10050800B5511DE10D0E0101B45DD8B018D0AFC1D1
:10051800BBF0B0C1BCF0B1C1BDF00101B45104ECF5
:1005280017F0B1C0BEF0B2C0BFF0B3C0C0F0A1ECCC
:1005380019F0BBC0AFF1BCC0B0F1BDC0B1F1010151
:10054800ACBF08D00101AC512AE10A0E0101AB5D34
:10055800D8B025D00101AF510101B0110101B1118D
:10056800D8B463D0AFC1B8F0B0C1B9F0B1C1BAF076
:100578009EEC1EF00001B8510001B9110001BA113A
:100588000001BB11D8A451D00101ACBF4ED001016C
:10059800AC5105E1020E0101AB5DD8A046D0A3C164
:1005A8008EF0A4C18FF0A5C190F0700E0001916F7C
:1005B800890E0001926F400E0001936F5AEC22F0F1
:1005C8000001D8B003D00101F70E02D00101F80EE6
:1005D800AB27FF0EAC230101AB5133EC10F0B1C0D7
:1005E800A3F1B2C0A4F1B3C0A5F1AFC18EF0B0C100
:1005F8008FF0B1C190F0A3C191F0A4C192F0A5C150
:1006080093F0ABEC1BF08EC0A7F18FC0A8F190C09F
:10061800A9F191C0AAF1000E0101AF6F000E01010E
:10062800B06F000E0101B16F33D0AFC1B8F0B0C1E7
:10063800B9F0B1C1BAF09EEC1EF0B8C0A7F1B9C0CC
:10064800A8F1BAC0A9F1BBC0AAF1AFC1C7F0B0C147
:10065800C8F0B1C1C9F0A7C196F0A8C197F0A9C167
:1006680098F0AAC199F057EC26F096C0CAF097C046
:10067800CBF098C0CCF0A7EC28F0C7C0AFF1C8C049
:10068800B0F1C9C0B1F1000E0101AC6F000EAB6F43
:10069800010E0101B66F0A0E0101B619D8B421D0B6
:1006A8000101B651040D010EF324F66EFF0EF4207D
:1006B800F76EF86A000EF8220900F5500101A75DEF
:1006C8000900F5500101A8590900F5500101A9597F
:1006D8000900F5500101AA59D8A003D00101B62B91
:1006E800DAD7B6C194F10101956B94BF9507010162
:1006F800B451010194270101B5510101952301016C
:10070800AB51010194270101AC510101952301016D
:1007180094510101B25F010195510101B35B0101DF
:10072800B4510101B511D8B404D00101B207D8A061
:10073800B307030E0101AD150101946F000E01010D
:10074800AE150101956F0101945101019511D8B4BD
:1007580004D00101B207D8A0B3070101ADA53FD06D
:10076800030E0101AD150101946F000E0101AE15D4
:100778000101956F0101945101019511D8B417D069
:10078800CDC0D9FFCEC0DAFF2D0EDF6E0001CD4BF4
:10079800CE2B0DD0CDC0D9FFCEC0DAFF300EDF6E24
:1007A8000001CD4BCE2B0101B207D8A0B307010140
:1007B800B3BF87D00101B351EDE10101B205D8A063
:1007C80080D0E8D7CDC0D9FFCEC0DAFF200EDF6ECB
:1007D8000001CD4BCE2B0101B207D8A0B307010110
:1007E800B3BF07D00101B351EDE10101B205D8B0A3
:1007F800E9D7030E0101AD150101946F000E010147
:10080800AE150101956F0101945101019511D8B4FC
:1008180058D0CDC0D9FFCEC0DAFF2D0E50D0000180
:10082800CD4BCE2B4ED0A7C18EF0A8C18FF0A9C159
:1008380090F0AAC191F00101B651040D010EF32404
:10084800F66EFF0EF420F76EF86A000EF822090023
:10085800F5CF92F00900F5CF93F00900F5CF94F0A9
:100868000A00F5CF95F01DEC23F08EC0A3F18FC0E0
:10087800A4F190C0A5F191C0A6F1A3C19BF0A4C1B9
:100888009CF0A5C19DF0A6C19EF00A0E00019F6FC5
:10089800000EA06F000EA16F000EA26F23EC24F0D3
:1008A8009BC0A3F19CC0A4F19DC0A5F19EC0A6F178
:1008B8000101A351300FCDC0D9FFCEC0DAFFDF6EE2
:1008C800AED70101B6070101B629D8B40ED0ABD70F
:1008D800CDC0D9FFCEC0DAFF300EDF6E0001CD4BA0
:1008E800CE2B0101AB07D8A0AC070101ACBF07D0E4
:1008F8000101AC51EDE10101AB05D8B0E9D7010127
:10090800B5BF0CD00101B55105E1090E0101B45D77
:10091800D8A004D0080E0101B66F02D0B4C1B6F158
:100928000101B6510101B45F000E0101B6BFFF0E0F
:100938000101B55B0101B6510101D8B409D0CDC0A0
:10094800D9FFCEC0DAFF2E0EDF6E0001CD4BCE2BC5
:100958000101B65133EC10F0B1C09AF1B2C09BF16D
:10096800B3C09CF1AFC1A5F0B0C1A6F0B1C1A7F06A
:100978009AC1A2F09BC1A3F09CC1A4F0EFEC1DF0BA
:10098800A2C0B8F0A3C0B9F0A4C0BAF09EEC1EF0A3
:10099800B8C0A7F1B9C0A8F1BAC0A9F1BBC0AAF103
:1009A8007AD0A7C18EF0A8C18FF0A9C190F0AAC1D2
:1009B80091F00101B651040D010EF324F66EFF0EFD
:1009C800F420F76EF86A000EF8220900F5CF92F0CD
:1009D8000900F5CF93F00900F5CF94F00A00F5CFA0
:1009E80095F01DEC23F08EC0A3F18FC0A4F190C048
:1009F800A5F191C0A6F1A3C19BF0A4C19CF0A5C12B
:100A08009DF0A6C19EF00A0E00019F6F000EA06F18
:100A1800000EA16F000EA26F23EC24F09BC0A3F17F
:100A28009CC0A4F19DC0A5F19EC0A6F10101A351EF
:100A3800300FCDC0D9FFCEC0DAFFDF6E0001CD4B3D
:100A4800CE2BA7C19BF0A8C19CF0A9C19DF0AAC15B
:100A58009EF00101B651040D010EF324F66EFF0E4F
:100A6800F420F76EF86A000EF8220900F5CF9FF01F
:100A78000900F5CFA0F00900F5CFA1F00A00F5CFE5
:100A8800A2F023EC24F09BC0A7F19CC0A8F19DC064
:100A9800A9F19EC0AAF10101B6070101B629D8B48F
:100AA8000ED07FD7CDC0D9FFCEC0DAFF300EDF6EB3
:100AB8000001CD4BCE2B0101B407D8A0B507010129
:100AC800B4510101B511D8B49FD1ECD79FC1D9FF5A
:100AD800A0C1DAFFDECFA7F1DDCFA8F10101000E3A
:100AE800A8BFFF0EA96FAA6F020E01019F27000E73
:100AF800A0230101AAAF0CD0030E0101AD1301011F
:100B0800AA1FA91FA81FA76D000EA823A923AA23FF
:100B18000101B4510101B511D8A40DD00101A751AB
:100B28000101A8110101A9110101AA11D8A403D03A
:100B38000101B44BB52B010E0101B66F0A0E01017C
:100B4800B619D8B421D00101B651040D010EF32411
:100B5800F66EFF0EF420F76EF86A000EF822090010
:100B6800F5500101A75D0900F5500101A8590900D8
:100B7800F5500101A9590900F5500101AA59D8A059
:100B880003D00101B62BDAD7800E0101B6BF7F0E64
:100B98000101946F0101B4510101B65D0101B55124
:100BA800800A01019459D8B003D0B4C1B6F118D065
:100BB8000101B551800A0101946F0101B65101018B
:100BC800B45D800E0101B6BF7F0E01019459D8B003
:100BD80007D00101B6510101B46FB56BB4BFB507B9
:100BE8000101B2510101B311D8B414D0030E0101AF
:100BF800AD150101946F000E0101AE150101956F4D
:100C08000101945101019511D8B404D00101B20732
:100C1800D8A0B3070101AEAD1ED00101B251010148
:100C2800B45D0101B551800A0101946F0101B3510E
:100C3800800A01019459D8B009D00101B4510101C9
:100C4800B25F0101B5510101B35B05D0000E01018E
:100C5800B36F000EB26F800E0101B6BF7F0E0101A7
:100C6800946F0101B2510101B65D0101B351800ACF
:100C780001019459D8B00BD00101B6510101B25FFE
:100C8800000E0101B6BFFF0E0101B35B05D0000ED7
:100C98000101B36F000EB26F0101ADA52DD0030E97
:100CA8000101AD150101946F000E0101AE1501019E
:100CB800956F0101945101019511D8B409D0CDC0A7
:100CC800D9FFCEC0DAFF2D0EDF6E0001CD4BCE2B43
:100CD8000101B2510101B311D8B48BD0CDC0D9FFF5
:100CE800CEC0DAFF300EDF6E0001CD4BCE2B0101F6
:100CF800B207D8A0B307ECD70101B2510101B31173
:100D0800D8B413D0CDC0D9FFCEC0DAFF200EDF6E25
:100D18000001CD4BCE2B0101B207D8A0B3070101CA
:100D2800B2510101B311D8A4EDD7030E0101AD15DD
:100D38000101946F000E0101AE150101956F0101CB
:100D4800945101019511D8B454D0CDC0D9FFCEC06B
:100D5800DAFF2D0EDF6E4AD0B4C194F1B5C195F11A
:100D68000101D890943795370101D8909437953779
:100D7800010E01019425F66EFF0E9521F76EF86AB3
:100D8800000EF8220900F5CF92F00900F5CF93F094
:100D98000900F5CF94F00A00F5CF95F0A7C18EF0C1
:100DA800A8C18FF0A9C190F0AAC191F01DEC23F061
:100DB8008EC09BF08FC09CF090C09DF091C09EF0BB
:100DC8000A0E00019F6F000EA06F000EA16F000EAB
:100DD800A26F23EC24F000019B51300F0101B66F84
:100DE800CDC0D9FFCEC0DAFFB6C1DFFF0001CD4BC1
:100DF800CE2B0101B407D8A0B5070101B429ACE195
:100E08000101B529D8A4A8D7CFC0F6FFD0C0F7FFF5
:100E18000001CF4BD02BF86A0800F5CFB6F10101DD
:100E2800B651D8A415EF00F0CDC0D9FFCEC0DAFF77
:100E3800000EDF6E1200470E586E000E596ED3EF8B
:100E48000CF0250E6F18D8B40AD043C0D9FF44C09F
:100E5800DAFF6FC0DFFF434A442AD3EF0CF0000EDD
:100E68006C6E000E6B6E000E676E000E666E03D021
:100E78006684454A462A45C0F6FF46C0F7FFF86A29
:100E88000800F550300AD8B4F3D745C0F6FF46C07D
:100E9800F7FFF86A0800F550FBEC2AF0D8A034D028
:100EA800000E6C6E000E6B6E6BC00FF06CC010F015
:100EB800000E126E0A0E116E91EC2AF00FC06BF044
:100EC80010C06CF0D00E4D6EFF0E4E6E45C0F6FF92
:100ED80046C0F7FFF86A0800F5504F6E506A4D504B
:100EE8004F264E5050224F506B2650506C22454A88
:100EF800462A45C0F6FF46C0F7FFF86A0800F550D5
:100F0800FBEC2AF0D8B0D0D745C0F6FF46C0F7FFB3
:100F1800F86A0800F5502E0AD8A430D0678C454AE4
:100F2800462A000E6E6E000E6D6E1CD06DC00FF05E
:100F38006EC010F0000E126E0A0E116E91EC2AF0BF
:100F480045C0F6FF46C0F7FFF86A0800F5500F26BF
:100F5800000E1022D00E0F246D6EFF0E10206E6E44
:100F6800454A462A45C0F6FF46C0F7FFF86A08001A
:100F7800F550FBEC2AF0D8A091D0D8D7000E6E6EB1
:100F8800000E6D6E67888AD06784A5D058C0D9FFD7
:100F980059C0DAFFDECF56F0DDCF57F0020E5826E3
:100FA800000E592256505710D8A404D0F20E566E8F
:100FB800FF0E576E000E5B6E000E5A6E02D05A4A34
:100FC8005B2A5A5056244D6E5B5057204E6E4DC0CA
:100FD800F6FF4EC0F7FF000EF86E0F0EF76403D051
:100FE8000800F55005D0F6CFE1FFF7CFE2FFE75054
:100FF8000009D8A4E4D76D506E10D8B40AD05A505E
:101008006D5C5B506E58D8B004D06DC05AF06EC09D
:101018005BF06B505A5C6C505B58D8B005D05A5096
:101028006B5E5B506C5A0DD0000E6C6E000E6B6ED2
:1010380008D043C0D9FF44C0DAFF200EDF6E434A10
:10104800442A6B06D8A06C066B28F3E16C28D8B448
:101058001BD0EFD756C0F6FF57C0F7FF000EF86E4B
:1010680043C0D9FF44C0DAFF0F0EF76403D008006D
:10107800F55005D0F6CFE1FFF7CFE2FFE750DF6E7E
:10108800564A572A434A442A5A06D8A05B065A2881
:10109800E1E15B28D8B4D3EF0CF0DCD745C0F6FF0C
:1010A80046C0F7FF454A462AF86A0800F5CF6FF0B0
:1010B8006F50000AD8B4E1EF0CF0640AD8B40BD032
:1010C800020AD8B461D70F0AD8B405D01A0AD8B41E
:1010D8005DD7D3EF0CF0070E6714D8B426D367A8F2
:1010E80004D0000E6E6E060E6D6E58C0D9FF59C042
:1010F800DAFFDECF68F0DECF69F0DDCF6AF0030EED
:101108005826000E59226AAE10D068C001F069C096
:1011180002F06AC003F0A4EC2AF001C068F002C033
:1011280069F003C06AF0030E6612000E656E000EC9
:10113800646E685069106A10D8B483D0820E4D6E00
:10114800FF0E4E6E68C04FF069C050F06AC051F093
:101158006BC052F0100E05D0D89052325132503236
:101168004F32E82EF9D74F504D24646E000E4E20B2
:10117800656E6406D8A0650664C00FF065C010F0FF
:10118800000E126E030E116E91EC2AF00FC064F07F
:1011980010C065F064C007F065C008F0000E0A6E64
:1011A8000A0E096ED4EC25F007C064F008C065F09B
:1011B80065AE03D06406D8A0650664500008E8EC64
:1011C80014F024C05CF025C05DF026C05EF05CC061
:1011D80015F05DC016F05EC017F068C018F069C061
:1011E80019F06AC01AF0F3EC20F015C05CF016C0D4
:1011F8005DF017C05EF05CC03AF05DC03BF05EC0C9
:101208003CF0000E3D6E800E3E6E3F0E3F6EB9EC18
:1012180024F0D8B004D06406D8A0650612D05CC00B
:101228003AF05DC03BF05EC03CF0000E3D6E200E13
:101238003E6E410E3F6EB9EC24F0D8A002D0644A4D
:10124800652A6EBE06D06E501BE10D0E6D5CD8B0DF
:1012580017D068C02EF069C02FF06AC030F06D500A
:101268006CEC18F024C031F025C032F026C033F001
:10127800D5EC1AF02EC068F02FC069F030C06AF0C3
:1012880065BE06D065501EE10A0E645CD8B01AD05F
:10129800685069106A10D8B451D068C024F069C089
:1012A80025F06AC026F06DEC21F024502510261098
:1012B8002710D8B465BE42D0655004E1020E645CC4
:1012C800D8A03CD05CC03AF05DC03BF05EC03CF0BA
:1012D800700E3D6E890E3E6E400E3F6EB9EC24F0E6
:1012E800D8B002D0F70E01D0F80E6426FF0E6522A2
:1012F8006450E8EC14F024C05CF025C05DF026C012
:101308005EF068C001F069C002F06AC003F05CC01A
:1013180004F05DC005F05EC006F040EC1FF001C0AF
:1013280060F002C061F003C062F004C063F0000E18
:10133800686E000E696E000E6A6E32D068C024F0C6
:1013480069C025F06AC026F06DEC21F024C060F079
:1013580025C061F026C062F027C063F068C03AF08B
:1013680069C03BF06AC03CF060C009F061C00AF097
:1013780062C00BF063C00CF0A8EC27F009C03DF088
:101388000AC03EF00BC03FF054EC29F03AC068F0B8
:101398003BC069F03CC06AF0000E656E000E646EDA
:1013A800010E6F6E0A0E6F18D8B41BD06F50040D63
:1013B800010EF324F66EFF0EF420F76EF86A000EA5
:1013C800F8220900F550605C0900F55061580900E1
:1013D800F55062580900F5506358D8A002D06F2A1A
:1013E800E1D76FC04DF04E6A4DBE4E066D504D268A
:1013F8006E504E2264504D2665504E224D506B5E05
:101408004E506C5A6D506E10D8B403D06B06D8A0ED
:101418006C06030E66144D6E000E67144E6E4D502A
:101428004E10D8B403D06B06D8A06C0666A431D091
:10143800030E66144D6E000E67144E6E4D504E101E
:10144800D8B414D043C0D9FF44C0DAFF2D0EDF6EE4
:10145800434A442A0BD043C0D9FF44C0DAFF300EB8
:10146800DF6E434A442A6B06D8A06C066CBE76D061
:101478006C50F1E16B04D8A071D0EDD743C0D9FF0F
:1014880044C0DAFF200EDF6E434A442A6B06D8A018
:101498006C066CBE05D06C50F1E16B04D8B0EED789
:1014A800030E66144D6E000E67144E6E4D504E10AE
:1014B800D8B454D043C0D9FF44C0DAFF2D0E4CD065
:1014C800434A442A4BD060C001F061C002F062C0B8
:1014D80003F063C004F06F50040D010EF324F66EA0
:1014E800FF0EF420F76EF86A000EF8220900F5CF17
:1014F80005F00900F5CF06F00900F5CF07F00A005E
:10150800F5CF08F016EC26F001C05CF002C05DF0E3
:1015180003C05EF004C05FF05CC00EF05DC00FF069
:101528005EC010F05FC011F00A0E126E000E136E4E
:10153800000E146E000E156E44EC27F00EC05CF021
:101548000FC05DF010C05EF011C05FF05C50300F4E
:1015580043C0D9FF44C0DAFFDF6EB2D76F066F28E9
:10156800D8B40CD0B0D743C0D9FF44C0DAFF300E8E
:10157800DF6E434A442A6406D8A0650665BE05D0D6
:101588006550F1E16404D8B0EED76EBE09D06E5054
:1015980004E1090E6D5CD8A003D0080E6F6E02D06E
:1015A8006DC06FF06F506D5E000E6FBEFF0E6E5A0D
:1015B8006F50D8B408D043C0D9FF44C0DAFF2E0E0C
:1015C800DF6E434A442A6F50E8EC14F024C053F00D
:1015D80025C054F026C055F068C018F069C019F04D
:1015E8006AC01AF053C015F054C016F055C017F071
:1015F800F3EC20F015C024F016C025F017C026F033
:101608006DEC21F024C060F025C061F026C062F0C6
:1016180027C063F075D060C001F061C002F062C0FD
:1016280003F063C004F06F50040D010EF324F66E4E
:10163800FF0EF420F76EF86A000EF8220900F5CFC5
:1016480005F00900F5CF06F00900F5CF07F00A000C
:10165800F5CF08F016EC26F001C05CF002C05DF092
:1016680003C05EF004C05FF05CC00EF05DC00FF018
:101678005EC010F05FC011F00A0E126E000E136EFD
:10168800000E146E000E156E44EC27F00EC05CF0D0
:101698000FC05DF010C05EF011C05FF05C50300FFD
:1016A80043C0D9FF44C0DAFFDF6E434A442A60C012
:1016B8000EF061C00FF062C010F063C011F06F50FF
:1016C800040D010EF324F66EFF0EF420F76EF86A8F
:1016D800000EF8220900F5CF12F00900F5CF13F03B
:1016E8000900F5CF14F00A00F5CF15F044EC27F007
:1016F8000EC060F00FC061F010C062F011C063F05E
:101708006F066F28D8B40CD086D743C0D9FF44C021
:10171800DAFF300EDF6E434A442A6D06D8A06E0603
:101728006D506E10D8B43BD1F0D758C0D9FF59C00E
:10173800DAFFDECF60F0DDCF61F0000E61BEFF0E94
:10174800626E636E020E5826000E592263AE0AD0EE
:10175800030E6612631E621E611E606C000E61221B
:10176800622263226D506E10D8A408D060506110B8
:1017780062106310D8A402D06D4A6E2A010E6F6EF3
:101788000A0E6F18D8B41BD06F50040D010EF32445
:10179800F66EFF0EF420F76EF86A000EF8220900C4
:1017A800F550605C0900F55061580900F550625821
:1017B8000900F5506358D8A002D06F2AE1D7800EEF
:1017C8006FBE7F0E4D6E6D506F5C6E50800A4D5827
:1017D800D8B003D06DC06FF010D06E50800A4D6E37
:1017E8006F506D5C800E6FBE7F0E4D58D8B005D01F
:1017F8006F506D6E6E6A6DBE6E066B506C10D8B40D
:101808000DD0030E66144D6E000E67144E6E4D50CB
:101818004E10D8B403D06B06D8A06C0667AC13D0B2
:101828006B506D5C6E50800A4D6E6C50800A4D583E
:10183800D8B005D06D506B5E6E506C5A04D0000E57
:101848006C6E000E6B6E800E6FBE7F0E4D6E6B5011
:101858006F5C6C50800A4D58D8B007D06F506B5EE3
:10186800000E6FBEFF0E6C5A04D0000E6C6E000E98
:101878006B6E66A422D0030E66144D6E000E6714BC
:101888004E6E4D504E10D8B408D043C0D9FF44C056
:10189800DAFF2D0EDF6E434A442A6B506C10D8B421
:1018A80076D043C0D9FF44C0DAFF300EDF6E434A1A
:1018B800442A6B06D8A06C06F0D76B506C10D8B4CD
:1018C8000FD043C0D9FF44C0DAFF200EDF6E434A71
:1018D800442A6B06D8A06C066B506C10D8A4F1D7BC
:1018E800030E66144D6E000E67144E6E4D504E106A
:1018F800D8B44DD043C0D9FF44C0DAFF2D0EDF6EF7
:1019080044D06DC04DF06EC04EF0D8904D364E3676
:10191800D8904D364E36010E4D24F66EFF0E4E20F1
:10192800F76EF86A000EF8220900F5CF05F00900F5
:10193800F5CF06F00900F5CF07F00A00F5CF08F05B
:1019480060C001F061C002F062C003F063C004F03F
:1019580016EC26F001C00EF002C00FF003C010F024
:1019680004C011F00A0E126E000E136E000E146EF3
:10197800000E156E44EC27F00E50300F6F6E43C00A
:10198800D9FF44C0DAFF6FC0DFFF434A442A6D061F
:10199800D8A06E066D28B5E16E28D8A4B2D745C088
:1019A800F6FF46C0F7FF454A462AF86A0800F5CF11
:1019B8006FF06F50D8A425EF07F043C0D9FF44C09B
:1019C800DAFF000EDF6E12000AEC2BF034EC29F07F
:1019D800D1EC26F013EC2BF0540E0001CD6F010E64
:1019E8000001CE6F770E0001CF6FFF0E0001D06FA0
:1019F800E5C0D1F0E6C0D2F0E7C0D3F0E8C0D4F03B
:101A0800E3C0D5F0E4C0D6F00DEC00F0010E000103
:101A1800986F010E7FEC28F0540E00019C6F010EA8
:101A280000019D6F7EEC2AF0640E0001CD6F010E5F
:101A38000001CE6FB00E0001CF6FFF0E0001D06F16
:101A4800D9C0D1F0DAC0D2F0DBC0D3F00DEC00F091
:101A5800020E0001986F010E7FEC28F0640E000161
:101A68009C6F010E00019D6F7EEC2AF0740E000140
:101A7800CD6F010E0001CE6FC10E0001CF6FFF0EBA
:101A88000001D06FDCC0D1F0DDC0D2F0DEC0D3F0F1
:101A98000DEC00F0030E0001986F010E7FEC28F0AA
:101AA800740E00019C6F010E00019D6F7EEC2AF000
:101AB800840E0001CD6F010E0001CE6F8E0E000165
:101AC800CF6FFF0E0001D06F0DEC00F0040E000187
:101AD800986F010E7FEC28F0840E00019C6F010EB8
:101AE80000019D6F7EEC2AF0000E0001E26F000EEF
:101AF800E16F000E0001E46F000EE36F000E0001BD
:101B0800E86F000EE76F000E0001E66F000EE56F4C
:101B1800000E776E000E766E000E796E000E786EEF
:101B2800829A0400000E00018F6FC80E8E6FF9ECC8
:101B380029F081B6E5D0000E00018F6FC80E8E6FB8
:101B4800F9EC29F00001E1510001E211D8A402D01A
:101B5800010E10D00001E1050001E211D8A402D065
:101B68000A0E08D0020E0001E1190001E211D8A402
:101B780007D03C0E0001DF250001DF6F000E1BD0EF
:101B8800030E0001E1190001E211D8A407D0580E94
:101B98000001DF250001DF6F020E0DD0040E0001E9
:101BA800E1190001E211D8A40AD0100E0001DF25C6
:101BB8000001DF6F0E0E0001E0210001E06FA10EB1
:101BC8000001DF5D8C0E0001E059D8A005D08C0E15
:101BD8000001E06FA00EDF6FDFC0A2F0E0C0A3F04D
:101BE8000E0E0001A56F100EA46F95EC26F0A2C092
:101BF800E5F0A3C0E6F0E5C09CF0E6C09DF00E0E4F
:101C080000019F6F100E9E6FADEC29F000019C1F24
:101C180000019D1F00019C4B9D2B0001DF5100011D
:101C28009C250001A26F0001E05100019D210001E7
:101C3800A36F000E0001A56F3C0EA46F95EC26F073
:101C4800A2C0E7F0A3C0E8F0E5C09CF0E6C09DF0B4
:101C58000E0E00019F6F100E9E6FADEC29F09CC018
:101C6800D7F09DC0D8F0E7C09CF0E8C09DF0000E0A
:101C780000019F6F3C0E9E6FADEC29F000019C5156
:101C88000001D72700019D510001D8230001D71F6B
:101C9800D81FD74BD82B0001DF510001D7250001F1
:101CA800E36F0001E0510001D8210001E46F540EF8
:101CB8000001CD6F010E0001CE6F770E0001CF6FCE
:101CC800FF0E0001D06FE5C0D1F0E6C0D2F0E7C04A
:101CD800D3F0E8C0D4F0E3C0D5F0E4C0D6F00DEC02
:101CE80000F0010E0001986F010E7FEC28F0540EF1
:101CF80000019C6F010E00019D6F7EEC2AF011D748
:101D080081B8E5D0000E00018F6FC80E8E6FF9EC18
:101D180029F00001E1510001E211D8A402D0FF0E20
:101D280010D00001E1050001E211D8A402D0F60E9E
:101D380008D0020E0001E1190001E211D8A407D071
:101D4800C40E0001DF250001DF6FFF0E1BD0030E5C
:101D58000001E1190001E211D8A407D0A80E000182
:101D6800DF250001DF6FFD0E0DD0040E0001E11923
:101D78000001E211D8A40AD0F00E0001DF2500010D
:101D8800DF6FF10E0001E0210001E06FA10E0001FC
:101D9800DF5D8C0E0001E059D8A005D0000E0001CF
:101DA800E06F000EDF6FDFC0A2F0E0C0A3F00E0E00
:101DB8000001A56F100EA46F95EC26F0A2C0E5F007
:101DC800A3C0E6F0E5C09CF0E6C09DF00E0E000151
:101DD8009F6F100E9E6FADEC29F000019C1F000153
:101DE8009D1F00019C4B9D2B0001DF5100019C258C
:101DF8000001A26F0001E05100019D210001A36FC5
:101E0800000E0001A56F3C0EA46F95EC26F0A2C051
:101E1800E7F0A3C0E8F0E5C09CF0E6C09DF00E0E28
:101E280000019F6F100E9E6FADEC29F09CC0D7F09B
:101E38009DC0D8F0E7C09CF0E8C09DF0000E0001FE
:101E48009F6F3C0E9E6FADEC29F000019C51000184
:101E5800D72700019D510001D8230001D71FD81FA3
:101E6800D74BD82B0001DF510001D7250001E36FC4
:101E78000001E0510001D8210001E46F540E000177
:101E8800CD6F010E0001CE6F770E0001CF6FFF0EF0
:101E98000001D06FE5C0D1F0E6C0D2F0E7C0D3F0C2
:101EA800E8C0D4F0E3C0D5F0E4C0D6F00DEC00F003
:101EB800010E0001986F010E7FEC28F0540E00010E
:101EC8009C6F010E00019D6F7EEC2AF02AD681BA24
:101ED80028D6000E00018F6FC80E8E6FF9EC29F01E
:101EE800000E0001E26F000EE16F000E0001E46FCA
:101EF800000EE36F000E0001E86F000EE76F000EA2
:101F08000001E66F000EE56F000E0001E06F000EA5
:101F1800DF6F000E776E000E766E000E796E000E83
:101F2800786E000E0001D96F000E0001DA6F000E06
:101F38000001DB6F000E0001DC6F000E0001DD6F99
:101F4800000E0001DE6F000E00018E6F010E000111
:101F58008F6F0E0E0001906F010E0001916FC8EC9B
:101F680029F0829A540E0001CD6F010E0001CE6F48
:101F78009F0E0001CF6FFF0E0001D06F0DEC00F037
:101F8800010E0001986F010E7FEC28F0540E00013D
:101F98009C6F010E00019D6F7EEC2AF0640E00011B
:101FA800CD6F010E0001CE6FB00E0001CF6FFF0E96
:101FB8000001D06FD9C0D1F0DAC0D2F0DBC0D3F0C5
:101FC8000DEC00F0020E0001986F010E7FEC28F076
:101FD800640E00019C6F010E00019D6F7EEC2AF0DB
:101FE800740E0001CD6F010E0001CE6FC10E00010D
:101FF800CF6FFF0E0001D06FDCC0D1F0DDC0D2F092
:10200800DEC0D3F00DEC00F0030E0001986F010E56
:102018007FEC28F0740E00019C6F010E00019D6F8B
:102028007EEC2AF0840E0001CD6F010E0001CE6F08
:102038008E0E0001CF6FFF0E0001D06F0DEC00F087
:10204800040E0001986F010E7FEC28F0840E000149
:102058009C6F010E00019D6F7EEC2AF062D5000195
:10206800B76F0001B7AF3CD10001B76D0001B751A0
:10207800800A120FD8A0B5D0000E00019F6F030E82
:102088009E6F000E0001976F0A0E966F000E0001FA
:10209800916F640E906F0001B75100018E6F8F6BC6
:1020A8008EBF8F07D2EC23F08EC094F08FC095F0CE
:1020B800BEEC22F0090E0001942500019C6F000E71
:1020C8000001952100019D6FADEC29F0290E00015A
:1020D8009C25F66EFF0E00019D21F76EF86A000E32
:1020E800F8220900F5CFA5F00900F5CFA6F00A00FF
:1020F800F5CFA7F0000E0001976F640E966F0001F0
:10210800B7510001946F956B94BF9507BEEC22F010
:10211800120E0001942500019C6F000E000195210C
:1021280000019D6F000E00019F6F030E9E6FADECC6
:1021380029F0290E00019C25F66EFF0E00019D2155
:10214800F76EF86A000EF8220900F5CFA2F0090030
:10215800F5CFA3F00A00F5CFA4F0EFEC1DF0A2C074
:10216800B4F0A3C0B5F0A4C0B6F0B4C0A2F0B5C036
:10217800A3F0B6C0A4F0000E00019F6F030E9E6F7F
:10218800000E0001916F0A0E906F0001B751000117
:102198008E6F8F6B8EBF8F07D2EC23F08EC09CF0B2
:1021A8008FC09DF0ADEC29F0290E00019C25F66E3C
:1021B800FF0E00019D21F76EF86A000EF822090053
:1021C800F5CFA5F00900F5CFA6F00A00F5CFA7F0E6
:1021D800EFEC1DF0A2C0B1F0A3C0B2F0A4C0B3F000
:1021E80012000001B751800A750FD8A063D0000E05
:1021F8000001976F0A0E966F0001B7510001946FA6
:10220800956B94BF9507BEEC22F0090E000194254A
:1022180000019C6F000E0001952100019D6F000ECA
:1022280000019F6F030E9E6FADEC29F0290E00018F
:102238009C25F66EFF0E00019D21F76EF86A000ED0
:10224800F8220900F5CFA2F00900F5CFA3F00A00A3
:10225800F5CFA4F0000E00019F6F030E9E6F000ED5
:102268000001916F0A0E906F0001B75100018E6F47
:102278008F6B8EBF8F07D2EC23F08EC09CF08FC07F
:102288009DF0ADEC29F0290E00019C25F66EFF0E9D
:1022980000019D21F76EF86A000EF8220900F5CFBB
:1022A800A5F00900F5CFA6F00A00F5CFA7F0EFECEE
:1022B8001DF090D70001B751030D290EF324F66ED7
:1022C800FF0EF420F76EF86A000EF8220900F5CF29
:1022D800B1F00900F5CFB2F00A00F5CFB3F0120063
:1022E8000001B751800A120FD8A0B5D0000E000126
:1022F8009F6F030E9E6F000E0001976F0A0E966F78
:10230800000E0001916F640E906F0001B75100013B
:102318008E6F8F6B8EBF8F07D2EC23F08EC094F038
:102328008FC095F0BEEC22F0090E00019425000143
:102338009C6F000E0001952100019D6FADEC29F006
:10234800500E00019C25F66EFF0E00019D21F76ED0
:10235800F86A000EF8220900F5CFA5F00900F5CFBC
:10236800A6F00A00F5CFA7F0000E0001976F640EE3
:10237800966F0001B7510001946F956B94BF950754
:10238800BEEC22F0120E0001942500019C6F000E95
:102398000001952100019D6F000E00019F6F030E43
:1023A8009E6FADEC29F0500E00019C25F66EFF0ED5
:1023B80000019D21F76EF86A000EF8220900F5CF9A
:1023C800A2F00900F5CFA3F00A00F5CFA4F0EFECD6
:1023D8001DF0A2C0B4F0A3C0B5F0A4C0B6F0B4C05C
:1023E800A2F0B5C0A3F0B6C0A4F0000E00019F6F24
:1023F800030E9E6F000E0001916F0A0E906F000190
:10240800B75100018E6F8F6B8EBF8F07D2EC23F010
:102418008EC09CF08FC09DF0ADEC29F0500E0001ED
:102428009C25F66EFF0E00019D21F76EF86A000EDE
:10243800F8220900F5CFA5F00900F5CFA6F00A00AB
:10244800F5CFA7F0EFEC1DF0A2C0B1F0A3C0B2F039
:10245800A4C0B3F012000001B751800A750FD8A0CC
:1024680063D0000E0001976F0A0E966F0001B751F6
:102478000001946F956B94BF9507BEEC22F0090E8E
:102488000001942500019C6F000E000195210001B8
:102498009D6F000E00019F6F030E9E6FADEC29F03B
:1024A800500E00019C25F66EFF0E00019D21F76E6F
:1024B800F86A000EF8220900F5CFA2F00900F5CF5E
:1024C800A3F00A00F5CFA4F0000E00019F6F030EE1
:1024D8009E6F000E0001916F0A0E906F0001B751B8
:1024E80000018E6F8F6B8EBF8F07D2EC23F08EC0EA
:1024F8009CF08FC09DF0ADEC29F0500E00019C259A
:10250800F66EFF0E00019D21F76EF86A000EF822A4
:102518000900F5CFA5F00900F5CFA6F00A00F5CF20
:10252800A7F0EFEC1DF090D70001B751030D500E46
:10253800F324F66EFF0EF420F76EF86A000EF82208
:102548000900F5CFB1F00900F5CFB2F00A00F5CFD8
:10255800B3F01200F29476507710D8B433D1020E4B
:10256800726E000E736E725001EC25F028C0D9F01F
:1025780029C0DAF02AC0DBF0735048EC25F028C0F7
:10258800DCF029C0DDF02AC0DEF0D9C03AF0DAC0AC
:102598003BF0DBC03CF0000E316E800E326E3F0E19
:1025A800336EDCC02EF0DDC02FF0DEC030F0D5EC8D
:1025B8001AF02EC03DF02FC03EF030C03FF0B9EC0D
:1025C80024F0D8B005D0828A000E796E010E22D090
:1025D800000E316E800E326EBF0E336EDCC02EF0F0
:1025E800DDC02FF0DEC030F0D5EC1AF02EC03AF086
:1025F8002FC03BF030C03CF0D9C03DF0DAC03EF00F
:10260800DBC03FF0B9EC24F0D8B005D0829A000EB8
:10261800796E000E786E0001DF510001E011D8B428
:102628000BD0FF0E0001DF250001DF6FFF0E000158
:10263800E0210001E06FC6D0000E0001E26F000E3D
:10264800E16F000E0001E46F000EE36F000E000161
:10265800E86F000EE76F000E0001E66F000EE56FF1
:10266800000E0001E06F000EDF6F000E776E000EA7
:10267800766E000E796E000E786E000E0001D96F2E
:10268800000E0001DA6F000E0001DB6F000E000182
:10269800DC6F000E0001DD6F000E0001DE6F000E22
:1026A800016E010E026E0E0E036E010E046E11EC29
:1026B8002AF0829A540E436E010E446E9F0E456EA8
:1026C800FF0E466E1FEC07F0010E0B6E010E13ECA9
:1026D80029F0540E0F6E010E106EB6EC2AF0640E3F
:1026E800436E010E446EB00E456EFF0E466ED9C0A5
:1026F80047F0DAC048F0DBC049F01FEC07F0020EE3
:102708000B6E010E13EC29F0640E0F6E010E106EA5
:10271800B6EC2AF0740E436E010E446EC10E456E7F
:10272800FF0E466EDCC047F0DDC048F0DEC049F061
:102738001FEC07F0030E0B6E010E13EC29F0740E5C
:102748000F6E010E106EB6EC2AF0840E436E010E69
:10275800446E8E0E456EFF0E466E1FEC07F0040E9B
:102768000B6E010E13EC29F0840E0F6E010E106E25
:10277800B6EC2AF0000E756E000E746E75BE08D0A9
:10278800755005E1080E745CD8B0120001D0120033
:1027980082B203D0706A702A01D0706A7046825083
:1027A8007018FD0B7018826E030E026EE80E016E33
:1027B800C8EC2AF0744A752A75BEEAD7755001E14B
:1027C800E1D71200DFC015F0E0C016F00E0E186E4B
:1027D800100E176E56EC28F015C0E5F016C0E6F09E
:1027E800E5C00FF0E6C010F00E0E126E100E116E5E
:1027F80091EC2AF00F1E101E0F4A102A0001DF511B
:102808000F24156E0001E0511020166E000E186E90
:102818003C0E176E56EC28F015C0E7F016C0E8F02D
:10282800E5C00FF0E6C010F00E0E126E100E116E1D
:1028380091EC2AF00FC070F010C071F0E7C00FF0F3
:10284800E8C010F0000E126E3C0E116E91EC2AF0EA
:102858000F50702610507122701E711E704A712A16
:102868000001DF5170240001E36F0001E051712085
:102878000001E46F20EC2BF0540E436E010E446E01
:10288800770E456EFF0E466EE5C047F0E6C048F08D
:10289800E7C049F0E8C04AF0E3C04BF0E4C04CF0B0
:1028A8001FEC07F0010E0B6E010E13EC29F0540E0D
:1028B8000F6E010E106EB6EC2AF076507710D8B471
:1028C80020D0640E436E010E446ED20E456EFF0E8C
:1028D800466ED9C047F0DAC048F0DBC049F0ED0ECB
:1028E8004A6E000E4B6E1FEC07F0020E0B6E010EC7
:1028F80013EC29F0640E0F6E010E106EB6EC2AF080
:102908001FD0640E436E010E446ED20E456EFF0E4C
:10291800466ED9C047F0DAC048F0DBC049F07A0EFD
:102928004A6E000E4B6E1FEC07F0020E0B6E010E86
:1029380013EC29F0640E0F6E010E106EB6EC2AF03F
:1029480078507910D8B420D0740E436E010E446EBE
:10295800E20E456EFF0E466EDCC047F0DDC048F063
:10296800DEC049F0ED0E4A6E000E4B6E1FEC07F00C
:10297800030E0B6E010E13EC29F0740E0F6E010E90
:10298800106EB6EC2AF01200740E436E010E446EFF
:10299800E20E456EFF0E466EDCC047F0DDC048F023
:1029A800DEC049F07A0E4A6E000E4B6E1FEC07F03F
:1029B800030E0B6E010E13EC29F0740E0F6E010E50
:1029C800106EB6EC2AF012002A6E2AAE0DD12A6CCF
:1029D8002A50800A120FD8A09AD0000E126E030E49
:1029E800116E000E0A6E0A0E096E000E046E640E59
:1029F800036E2A50016E026A01BE02060CEC27F033
:102A080001C007F002C008F0D4EC25F0090E072435
:102A18000F6E000E0820106E91EC2AF0290E0F247C
:102A2800F66EFF0E1020F76EF86A000EF822090005
:102A3800F5CF18F00900F5CF19F00A00F5CF1AF014
:102A4800000E0A6E640E096E2A50076E086A07BEE9
:102A58000806D4EC25F0120E07240F6E000E08208D
:102A6800106E000E126E030E116E91EC2AF0290EF4
:102A78000F24F66EFF0E1020F76EF86A000EF8228B
:102A88000900F5CF15F00900F5CF16F00A00F5CFCB
:102A980017F0F3EC20F015C027F016C028F017C087
:102AA80029F027C015F028C016F029C017F0000E2D
:102AB800126E030E116E000E046E0A0E036E2A507B
:102AC800016E026A01BE02060CEC27F001C00FF08D
:102AD80002C010F091EC2AF0290E0F24F66EFF0EBA
:102AE8001020F76EF86A000EF8220900F5CF18F0EA
:102AF8000900F5CF19F00A00F5CF1AF0F3EC20F031
:102B080015C024F016C025F017C026F012002A5070
:102B1800800A750FD8A053D0000E0A6E0A0E096EEF
:102B28002A50076E086A07BE0806D4EC25F0090E7D
:102B380007240F6E000E0820106E000E126E030E92
:102B4800116E91EC2AF0290E0F24F66EFF0E10205C
:102B5800F76EF86A000EF8220900F5CF15F00900A3
:102B6800F5CF16F00A00F5CF17F0000E126E030E1F
:102B7800116E000E046E0A0E036E2A50016E026A70
:102B880001BE02060CEC27F001C00FF002C010F0E5
:102B980091EC2AF0290E0F24F66EFF0E1020F76E26
:102BA800F86A000EF8220900F5CF18F00900F5CFF1
:102BB80019F00A00F5CF1AF0F3EC20F0A1D72A504B
:102BC800030D290EF324F66EFF0EF420F76EF86A53
:102BD800000EF8220900F5CF24F00900F5CF25F002
:102BE8000A00F5CF26F012002A50800A120FD8A04A
:102BF8009AD0000E126E030E116E000E0A6E0A0EA7
:102C0800096E000E046E640E036E2A50016E026A8D
:102C180001BE02060CEC27F001C007F002C008F064
:102C2800D4EC25F0090E07240F6E000E0820106E54
:102C380091EC2AF0500E0F24F66EFF0E1020F76E5E
:102C4800F86A000EF8220900F5CF18F00900F5CF50
:102C580019F00A00F5CF1AF0000E0A6E640E096E1C
:102C68002A50076E086A07BE0806D4EC25F0120E33
:102C780007240F6E000E0820106E000E126E030E51
:102C8800116E91EC2AF0500E0F24F66EFF0E1020F4
:102C9800F76EF86A000EF8220900F5CF15F0090062
:102CA800F5CF16F00A00F5CF17F0F3EC20F015C0B9
:102CB80027F016C028F017C029F027C015F028C043
:102CC80016F029C017F0000E126E030E116E000EDA
:102CD800046E0A0E036E2A50016E026A01BE0206D5
:102CE8000CEC27F001C00FF002C010F091EC2AF0B4
:102CF800500E0F24F66EFF0E1020F76EF86A000EC5
:102D0800F8220900F5CF18F00900F5CF19F00A00EC
:102D1800F5CF1AF0F3EC20F015C024F016C025F01A
:102D280017C026F012002A50800A750FD8A053D079
:102D3800000E0A6E0A0E096E2A50076E086A07BE50
:102D48000806D4EC25F0090E07240F6E000E0820A3
:102D5800106E000E126E030E116E91EC2AF0500EDA
:102D68000F24F66EFF0E1020F76EF86A000EF82298
:102D78000900F5CF15F00900F5CF16F00A00F5CFD8
:102D880017F0000E126E030E116E000E046E0A0E7E
:102D9800036E2A50016E026A01BE02060CEC27F08F
:102DA80001C00FF002C010F091EC2AF0500E0F2471
:102DB800F66EFF0E1020F76EF86A000EF822090072
:102DC800F5CF18F00900F5CF19F00A00F5CF1AF081
:102DD800F3EC20F0A1D72A50030D500EF324F66E21
:102DE800FF0EF420F76EF86A000EF8220900F5CFFE
:102DF80024F00900F5CF25F00A00F5CF26F01200DF
:102E08000001BA6F6D0E0001BA65C3D0000E000153
:102E18009F6F030E9E6F000E0001976F0A0E966F4C
:102E2800000E0001916F640E906FBAC08EF0000121
:102E38008F6BD2EC23F08EC094F08FC095F0BEEC6F
:102E480022F0090E0001942500019C6F000E00017C
:102E5800952100019D6FADEC29F0290E00019C25FC
:102E6800F66EFF0E00019D21F76EF86A000EF8223B
:102E78000900F5CFA5F00900F5CFA6F00A00F5CFB7
:102E8800A7F0000E0001976F640E966FBAC094F019
:102E98000001956BBEEC22F0120E00019425000192
:102EA8009C6F000E0001952100019D6F000E00012E
:102EB8009F6F030E9E6FADEC29F0290E00019C2533
:102EC800F66EFF0E00019D21F76EF86A000EF822DB
:102ED8000900F5CFA2F00900F5CFA3F00A00F5CF5D
:102EE800A4F0EFEC1DF0A2C0B7F0A3C0B8F0A4C0E6
:102EF800B9F0000E00019F6F030E9E6F000E0001D7
:102F0800916F0A0E906FBAC08EF000018F6BD2ECF1
:102F180023F08EC09CF08FC09DF0ADEC29F0290EF7
:102F280000019C25F66EFF0E00019D21F76EF86AE0
:102F3800000EF8220900F5CFA5F00900F5CFA6F09C
:102F48000A00F5CFA7F0B7C0A2F0B8C0A3F0B9C087
:102F5800A4F0EFEC1DF0A2C0B4F0A3C0B5F0A4C07B
:102F6800B6F0B4C0A2F0B5C0A3F0B6C0A4F0000E8D
:102F78000001A56F000E0001A66F3F0E0001A76FAC
:102F8800EFEC1DF0A2C0B1F0A3C0B2F0A4C0B3F042
:102F980012000A0E0001BA6574D0000E00019F6F7E
:102FA800030E9E6F000E0001916F0A0E906FBAC05B
:102FB8008EF000018F6BD2EC23F08EC09CF08FC096
:102FC8009DF0ADEC29F0290E00019C25F66EFF0E50
:102FD80000019D21F76EF86A000EF8220900F5CF6E
:102FE800A5F00900F5CFA6F00A00F5CFA7F0000E6E
:102FF8000001976F0A0E966FBAC094F00001956BA6
:10300800BEEC22F0090E0001942500019C6F000E11
:103018000001952100019D6F000E00019F6F030EB6
:103028009E6FADEC29F0290E00019C25F66EFF0E6F
:1030380000019D21F76EF86A000EF8220900F5CF0D
:10304800A2F00900F5CFA3F00A00F5CFA4F0EFEC49
:103058001DF0A2C0B7F0A3C0B8F0A4C0B9F0B7C0C3
:10306800A2F0B8C0A3F0B9C0A4F0000E0001A56F8B
:10307800000E0001A66F3F0E0001A76FEFEC1DF0D8
:1030880081D70001BA51030D290EF324F66EFF0E05
:10309800F420F76EF86A000EF8220900F5CFA2F0C6
:1030A8000900F5CFA3F00A00F5CFA4F0000E000147
:1030B800A56F000E0001A66F3F0E0001A76FEFEC91
:1030C8001DF0A2C0B1F0A3C0B2F0A4C0B3F01200CA
:1030D8002D6E6D0E2D64A8D0000E126E030E116EAB
:1030E800000E0A6E0A0E096E000E046E640E036E60
:1030F8002DC001F0026A0CEC27F001C007F002C0F5
:1031080008F0D4EC25F0090E07240F6E000E0820F5
:10311800106E91EC2AF0290E0F24F66EFF0E102087
:10312800F76EF86A000EF8220900F5CF18F00900CA
:10313800F5CF19F00A00F5CF1AF0000E0A6E640EEA
:10314800096E2DC007F0086AD4EC25F0120E07248A
:103158000F6E000E0820106E000E126E030E116E18
:1031680091EC2AF0290E0F24F66EFF0E1020F76E50
:10317800F86A000EF8220900F5CF15F00900F5CF1E
:1031880016F00A00F5CF17F0F3EC20F015C02AF07E
:1031980016C02BF017C02CF0000E126E030E116E25
:1031A800000E046E0A0E036E2DC001F0026A0CECCC
:1031B80027F001C00FF002C010F091EC2AF0290EA0
:1031C8000F24F66EFF0E1020F76EF86A000EF82234
:1031D8000900F5CF18F00900F5CF19F00A00F5CF6E
:1031E8001AF02AC015F02BC016F02CC017F0F3EC1B
:1031F80020F015C027F016C028F017C029F027C006
:1032080015F028C016F029C017F0000E186E000E31
:10321800196E3F0E1A6EF3EC20F015C024F016C09C
:1032280025F017C026F012000A0E2D6463D0000E98
:10323800126E030E116E000E046E0A0E036E2DC080
:1032480001F0026A0CEC27F001C00FF002C010F088
:1032580091EC2AF0290E0F24F66EFF0E1020F76E5F
:10326800F86A000EF8220900F5CF18F00900F5CF2A
:1032780019F00A00F5CF1AF0000E0A6E0A0E096E50
:103288002DC007F0086AD4EC25F0090E07240F6E4C
:10329800000E0820106E000E126E030E116E91ECD7
:1032A8002AF0290E0F24F66EFF0E1020F76EF86A2A
:1032B800000EF8220900F5CF15F00900F5CF16F039
:1032C8000A00F5CF17F0F3EC20F015C02AF016C06D
:1032D8002BF017C02CF02AC015F02BC016F02CC00C
:1032E80017F0000E186E000E196E3F0E1A6EF3ECF2
:1032F80020F093D72D50030D290EF324F66EFF0E00
:10330800F420F76EF86A000EF8220900F5CF15F0E0
:103318000900F5CF16F00A00F5CF17F0000E186E69
:10332800000E196E3F0E1A6EF3EC20F015C024F053
:1033380016C025F017C026F01200BDC0C1F000016C
:10334800C26BC36B0001BC350001C13701E3C28108
:103358000001C1510001C66FC0C0C1F00001C26BBD
:10336800C36B0001BF350001C13701E3C281000111
:10337800C1510001C56F0001C6510001D8B411D078
:103388000001C5510001C65DD8B012D00001C65178
:1033980000080001C5250001C16F180E0001C165B4
:1033A80007D0BEC0BBF0BFC0BCF0C0C0BDF01200AB
:1033B8000001C5510001D8B411D00001C651000167
:1033C800C55DD8B012D00001C55100080001C6255E
:1033D8000001C16F180E0001C16507D0BBC0BBF06A
:1033E800BCC0BCF0BDC0BDF01200060E0001C46F29
:1033F8000001BDAF02D00001C48F0001C0AF02D0F0
:103408000001C48D0001BC8FFF0E0001BB17FF0E29
:103418000001BC17000E0001BD170001BF8FFF0E91
:103428000001BE17FF0E0001BF17000E0001C017F4
:103438000001C5510001C65DD8B025D00001D89063
:10344800BE37BF37C0370001C5070001C6510001AC
:10345800C519D8B411D00001C407C4C0C1F0070E03
:103468000001C117D8B408D0E9D70001D890BD33FE
:10347800BC33BB330001C62B0001C5510001C6197E
:10348800D8B42BD0F2D70001C6510001C55DD8B021
:1034980024D00001D890BB37BC37BD370001C60720
:1034A8000001C6510001C519D8B411D00001C407E4
:1034B800C4C0C1F0070E0001C117D8B408D0E9D7BD
:1034C8000001D890C033BF33BE330001C52B0001C3
:1034D800C5510001C619D8A4F3D70001C4AF12D052
:1034E800FF0E0001BB1BFF0E0001BC1BFF0E0001FD
:1034F800BD1B010E0001BB27000E0001BC23000EFE
:103508000001BD230001C4AD12D0FF0E0001BE1B97
:10351800FF0E0001BF1BFF0E0001C01B010E0001C2
:10352800BE27000E0001BF23000E0001C023000EBD
:103538000001C46F0001BB510001BE270001BC514E
:103548000001BF230001BD510001C0230001C0AF2D
:1035580015D0FF0E0001BE1BFF0E0001BF1BFF0EA2
:103568000001C01B010E0001BE27000E0001BF2391
:10357800000E0001C023010E0001C46FBEC08EF012
:10358800BFC08FF0C0C090F0C6C091F0C4C092F028
:103598006DEC20F08EC0BBF08FC0BCF090C0BDF0C9
:1035A800120030C034F0356A366A2F34343601E3FD
:1035B80035803450396E33C034F0356A366A323467
:1035C800343601E335803450386E3950D8B40BD0D6
:1035D8003850395CD8B00ED0395000083824346ED1
:1035E800180E346407D031C02EF032C02FF033C02B
:1035F80030F012003850D8B40BD03950385CD8B0FD
:103608000ED0385000083924346E180E346407D0B0
:103618002EC02EF02FC02FF030C030F01200060E52
:10362800376E30BE378E33BE378C2F8EFF0E2E1678
:10363800FF0E2F16000E3016328EFF0E3116FF0EBB
:103648003216000E33163850395CD8B01BD0D890DB
:10365800313632363336380639503818D8B40DD0AA
:10366800370637C034F0070E3416D8B406D0EFD773
:10367800D89030322F322E32392A38503918D8B4EF
:103688001FD0F6D73950385CD8B01AD0D8902E361B
:103698002F363036390639503818D8B40DD0370699
:1036A80037C034F0070E3416D8B406D0EFD7D89008
:1036B800333232323132382A38503918D8A4F7D751
:1036C80037AE0CD0FF0E2E1AFF0E2F1AFF0E301A2F
:1036D800010E2E26000E2F22000E302237AC0CD001
:1036E800FF0E311AFF0E321AFF0E331A010E312661
:1036F800000E3222000E3322000E376E2E50312675
:103708002F5032223050332233AE0ED0FF0E311AF2
:10371800FF0E321AFF0E331A010E3126000E322226
:10372800000E3322010E376E31C001F032C002F0B4
:1037380033C003F039C004F037C005F07BEC23F048
:1037480001C02EF002C02FF003C030F0120090C06C
:1037580094F00001956B966B00018F35000194374A
:1037680001E395810001945100019C6F00019C5177
:10377800D8A40AD0000E00018E6F000E8F6F000EC5
:10378800906F000E916F120093C094F00001956B3A
:10379800966B000192350001943701E39581000191
:1037A800945100019B6F00019B51D8A40AD0000ED0
:1037B80000018E6F000E8F6F000E906F000E916FDC
:1037C800120000018F8FFF0E00018E17FF0E0001FF
:1037D8008F17000E000190170001928FFF0E000155
:1037E8009117FF0E00019217000E00019317000EAB
:1037F8000001976F000E986F000E996F000E9A6F78
:103808007F0E00019C5F00019B51980F00019C5F97
:10381800180E00019B6F0001D89097379837993799
:103828009A370001915100018E5D0001925100010B
:103838008F590001935100019059D8A00ED0000172
:10384800915100018E5F0001925100018F5B0001D0
:1038580093510001905B000197810001D8908E3749
:103868008F37903700019B2FD6D700019CAF1AD015
:1038780000019C51800A970FD8B00AD0000E0001B1
:103888008E6F000E8F6F000E906F000E916F1200FA
:103898000001D8909A3399339833973300019C3FAD
:1038A800F7D71BD0170E00019C6512D0000E00013F
:1038B8008E6F000E8F6F000E906F000E916F1200CA
:1038C8000001D8909737983799379A3700019C07A5
:1038D80000019C510001D8A4F3D797C08EF098C07E
:1038E8008FF099C090F09AC091F0120000019035C5
:1038F80091350001996F00019951D8A40AD0000EA2
:1039080000018E6F000E8F6F000E906F000E916F8A
:1039180012000001933594350001986F0001985109
:10392800D8A40AD0000E00018E6F000E8F6F000E13
:10393800906F000E916F12000001908FFF0E000132
:103948008E17FF0E8F17FF0E9017000E91170001AC
:10395800938FFF0E00019117FF0E9217FF0E93171A
:10396800000E9417000E0001946F000E956F000E64
:10397800966F000E976F7F0E0001995F00019851B6
:10398800A00F0001995F200E0001986F0001D890E8
:1039980094379537963797370001915100018E5D1E
:1039A8000001925100018F59000193510001905973
:1039B8000001945100019159D8A012D000019151F1
:1039C80000018E5F0001925100018F5B000193514D
:1039D8000001905B000194510001915B000194810A
:1039E8000001D8908E378F37903791370001982F84
:1039F800CDD7000199AF1AD000019951800A9F0FC5
:103A0800D8B00AD0000E00018E6F000E8F6F000E26
:103A1800906F000E916F12000001D8909733963383
:103A2800953394330001993FF7D71BD01F0E00013F
:103A3800996512D0000E00018E6F000E8F6F000E78
:103A4800906F000E916F12000001D890943795374F
:103A58009637973700019907000199510001D8A4BA
:103A6800F3D794C08EF095C08FF096C090F097C0B1
:103A780091F01200F2920001E1510001E211D8A484
:103A880005D0000E0001E26F010E2ED00001E10505
:103A98000001E211D8A405D0000E0001E26F020E69
:103AA80023D0020E0001E1190001E211D8A405D0CB
:103AB800000E0001E26F030E17D0030E0001E1199A
:103AC8000001E211D8A405D0000E0001E26F040E37
:103AD8000BD0040E0001E1190001E211D8A448D06E
:103AE800000E0001E26F000EE16F42D0000E016E81
:103AF800010E026E0E0E036E010E046E11EC2AF01A
:103B080050D0000E016E010E026E1C0E036E010EE7
:103B1800046E11EC2AF045D0000E016E010E026E03
:103B28002A0E036E010E046E11EC2AF03AD0000E34
:103B3800016E010E026E380E036E010E046E11EC5A
:103B48002AF02FD0000E016E010E026E460E036E93
:103B5800010E046E11EC2AF024D0000E016E010E45
:103B6800026E0E0E036E010E046E11EC2AF019D0CF
:103B7800E1C070F0E2C071F07150000AD8A4EDD72E
:103B88007050000AD8B4B2D7010AD8B4BAD7030A19
:103B9800D8B4C2D7010AD8B4CAD7070AD8B4D2D77A
:103BA800DCD7840E436E010E446EF90E456EFF0E8F
:103BB800466E000E476E010E486E1FEC07F0040EAD
:103BC8000B6E010E13EC29F0840E0F6E010E106EB1
:103BD800B6EC2AF01200A4C0A8F00001A96BAA6BE9
:103BE8000001A3350001A83701E3A9810001A8510C
:103BF8000001AB6F0001AB51D8A40AD0000E000140
:103C0800A26F000E0001A36F000E0001A46F120046
:103C1800A7C0A8F00001A96BAA6B0001A635000196
:103C2800A83701E3A9810001A8510001B06F000184
:103C3800B051D8A40AD0000E0001A26F000E0001F6
:103C4800A36F000E0001A46F12000001B0517B0F9A
:103C58000001AB27A4C0B0F00001A7510001B01BC0
:103C6800800E0001B0170001A38F0001A68FFF0E80
:103C78000001A517FF0E0001A617000E0001A717E7
:103C8800000E0001AC6F000E0001AD6F000E0001C8
:103C9800AE6F070E0001AF6F0001A2A10CD00001AA
:103CA800A5510001AC270001A6510001AD23000178
:103CB800A7510001AE230001D890A433A333A23347
:103CC8000001D890A537A637A7370001AF2FE4D752
:103CD800090E0001AF6F0001A2A10CD00001A5518F
:103CE8000001AC270001A6510001AD230001A75136
:103CF8000001AE230001D890A433A333A2330001FE
:103D0800D890AE33AD33AC330001AF2FE4D7ACC09D
:103D18008EF0ADC08FF0AEC090F0ABC091F0B0C0E7
:103D280092F06DEC20F08EC0A2F08FC0A3F090C08E
:103D3800A4F01200BAC0BCF00001BD6BBE6B00015C
:103D4800B9350001BC3701E3BD810001BC51000158
:103D5800C66F0001C651D8A40AD0000E0001B86F82
:103D6800000EB96F000EBA6F000EBB6F1200170E6F
:103D78000001BC6FB8C0BDF0B9C0BEF0BAC0BFF09A
:103D88000001BC290001C06F05D00001D890BF33E5
:103D9800BE33BD330001C02FF8D70001BD5100016B
:103DA800C16F0001B98FFF0E0001B817FF0E0001A7
:103DB800B917000E0001BA170001B8510001C26F0F
:103DC8000001B9510001C36F0001BA510001C46F6D
:103DD8000001C56B8E0E0001C65F0001C6AF1AD088
:103DE8000001C651800A8F0FD8B00AD0000E00011A
:103DF800B86F000EB96F000EBA6F000EBB6F1200DD
:103E08000001D890C533C433C333C2330001C63F61
:103E1800F7D71BD0170E0001C66512D0000E00019F
:103E2800B86F000EB96F000EBA6F000EBB6F1200AC
:103E38000001D890C237C337C437C5370001C60759
:103E48000001C6510001D8A4F3D70001C1510001F7
:103E5800D8B409D00001C51FC41FC31FC26D000E0E
:103E6800C323C423C523C2C0B8F0C3C0B9F0C4C0BB
:103E7800BAF0C5C0BBF0120003C007F0086A096AAF
:103E88000234073601E3088007500F6E0F50D8A49C
:103E980009D0000E016E000E026E000E036E000EB9
:103EA800046E120006C007F0086A096A053407366E
:103EB80001E3088007500E6E0E50D8A409D0000EFA
:103EC800016E000E026E000E036E000E046E1200EC
:103ED800028EFF0E0116FF0E0216000E0316058E47
:103EE800FF0E0416FF0E0516000E0616000E0A6ECB
:103EF800000E0B6E000E0C6E000E0D6E7F0E0F5E28
:103F08000E50980F0F5E180E0E6ED8900A360B36AC
:103F18000C360D360450015C055002580650035803
:103F2800D8A007D00450015E0550025A0650035A23
:103F38000A80D8900136023603360E2EE6D70FAE29
:103F480016D00F50800A970FD8B009D0000E016E16
:103F5800000E026E000E036E000E046E1200D89062
:103F68000D320C320B320A320F3EF9D715D0170E2C
:103F78000F640FD0000E016E000E026E000E036E6D
:103F8800000E046E1200D8900A360B360C360D3629
:103F98000F060F50D8A4F7D70AC001F00BC002F0E3
:103FA8000CC003F00DC004F01200033404340C6E8E
:103FB8000C50D8A409D0000E016E000E026E000E3F
:103FC800036E000E046E1200063407340B6E0B509D
:103FD800D8A409D0000E016E000E026E000E036E0A
:103FE800000E046E1200038EFF0E0116FF0E02165D
:103FF800FF0E0316000E0416068EFF0E0416FF0EA3
:104008000516FF0E0616000E0716000E076E000EA8
:10401800086E000E096E000E0A6E7F0E0C5E0B50C5
:10402800A00F0C5E200E0B6ED890073608360936A6
:104038000A360450015C05500258065003580750D0
:104048000458D8A009D00450015E0550025A065001
:10405800035A0750045A0780D890013602360336AF
:1040680004360B2EE1D70CAE16D00C50800A9F0FE9
:10407800D8B009D0000E016E000E026E000E036E5D
:10408800000E046E1200D8900A3209320832073244
:104098000C3EF9D715D01F0E0C640FD0000E016E20
:1040A800000E026E000E036E000E046E1200D89011
:1040B8000736083609360A360C060C50D8A4F7D746
:1040C80007C001F008C002F009C003F00AC004F0FC
:1040D8001200000191510001D8B408D000018E519E
:1040E80000018F1100019011D8A411D0000E000119
:1040F8008E6F000E00018F6F000E0001906F12008E
:104108000001912B0001D89090338F338E33000E2D
:1041180000018E150001936F000E00018F1500013C
:10412800946FFE0E000190150001956F00019351E8
:104138000001941100019511D8B411D0E1D7000104
:10414800912B010E00018E27000E00018F23000E17
:10415800000190230001D89090338F338E33000EE6
:1041680000018E150001936F000E00018F150001EC
:10417800946FFF0E000190150001956F0001935197
:104188000001941100019511D8B408D0D8D70001C6
:1041980091070001D8908E378F37903700018FBF75
:1041A80004D0020E00019161F2D7000191B102D052
:1041B80000018F9F0001D8909133000191510001B7
:1041C8009013000192510001D8B402D00001908FE1
:1041D8008EC08EF08FC08FF090C090F0120017C084
:1041E8001BF01C6A1D6A16341B3601E31C801B5029
:1041F8001E6E1E50D8A407D0000E156E000E166E47
:10420800000E176E12001AC01BF01C6A1D6A1934C2
:104218001B3601E31C801B50236E2350D8A407D003
:10422800000E156E000E166E000E176E120023504B
:104238007B0F1E2617C023F01A50231A800E231650
:10424800168E198EFF0E1816FF0E1916000E1A1666
:10425800000E1F6E000E206E000E216E070E226EDD
:1042680015A006D018501F26195020221A502122B6
:10427800D890173216321532D890183619361A36A1
:10428800222EEED7090E226E15A006D018501F2632
:10429800195020221A502122D8901732163215327E
:1042A800D890213220321F32222EEED71FC001F0C3
:1042B80020C002F021C003F01EC004F023C005F0A6
:1042C8007BEC23F001C015F002C016F003C017F014
:1042D800120026C028F0296A2A6A2534283601E304
:1042E80029802850326E3250D8A409D0000E246E8E
:1042F800000E256E000E266E000E276E1200170E99
:10430800286E24C029F025C02AF026C02BF02828C2
:104318002C6E04D0D8902B322A3229322C2EFAD780
:1043280029502D6E258EFF0E2416FF0E2516000E21
:10433800261624502E6E25502F6E2650306E316A68
:104348008E0E325E32AE16D03250800A8F0FD8B041
:1043580009D0000E246E000E256E000E266E000E8B
:10436800276E1200D890313230322F322E32323E40
:10437800F9D715D0170E32640FD0000E246E000E38
:10438800256E000E266E000E276E1200D8902E366F
:104398002F363036313632063250D8A4F7D72D5062
:1043A800D8B408D0311E301E2F1E2E6C000E2F22BE
:1043B800302231222EC024F02FC025F030C026F044
:1043C80031C027F012001BC01FF0206A216A1A347E
:1043D8001F3601E320801F50266E2650D8A407D030
:1043E800000E196E000E1A6E000E1B6E12001EC013
:1043F8001FF0206A216A1D341F3601E320801F50F8
:10440800276E2750D8A407D0000E196E000E1A6E1A
:10441800000E1B6E1200000E236E000E246E000E9E
:10442800256E2750890F265E1BC027F01E50271ABD
:10443800800E27161A8EFF0E1916FF0E1A16000E7A
:104448001B161D8EFF0E1C16FF0E1D16000E1E16C7
:10445800180E226ED8902336243625361C50195C47
:104468001D501A581E501B58D8A007D01C50195E52
:104478001D501A5A1E501B5A2380D89019361A36C6
:104488001B36222EE7D723C001F024C002F025C036
:1044980003F026C004F027C005F07BEC23F001C030
:1044A80019F002C01AF003C01BF01200000190AF0F
:1044B8001DD08EC094F08FC095F090C096F000018A
:1044C800941F951F961F942B000E95239623000E7C
:1044D8000001942500018E6F000E00019521000156
:1044E8008F6F800E000196210001906F000193AF3D
:1044F8001DD091C094F092C095F093C096F0000141
:10450800941F951F961F942B000E95239623000E3B
:10451800000194250001916F000E00019521000112
:10452800926F800E000196210001936F000E00012A
:104538008E1B000E00018F1B800E0001901B000EC9
:104548000001911B000E0001921B800E0001931BBD
:104558000001915100018E5D0001925100018F59B7
:104568000001935100019059D8B002D0D8901200A0
:10457800D8801200000E0001996F000197AF08D093
:104588000001966D971FD8B0972B010E0001996F07
:10459800000195AF08D00001946D951FD8B0952BF8
:1045A800010E0001991B000E00019B6F000E9A6F0F
:1045B8000001965100019711D8B42CD0010E0001CA
:1045C800986F06D00001D890963797370001982B3E
:1045D800000197AFF7D70001D8909A379B370001B1
:1045E80096510001945D0001975100019559D8A09A
:1045F8000AD0000196510001945F00019751000113
:10460800955B00019A810001D89097339633000199
:10461800982FE1D7000199510001D8B405D00001C5
:104628009A6D9B1FD8B09B2B9AC094F09BC095F0B5
:104638001200000E0001966F000E976F000E986F23
:10464800000E996F0001925100019311000194111D
:1046580000019511D8B442D0010E00019A6F08D01C
:104668000001D890923793379437953700019A2BE9
:10467800000195AFF5D70001D8909637973798374E
:1046880099370001925100018E5D0001935100019C
:104698008F59000194510001905900019551000172
:1046A8009159D8A012D00001925100018E5F0001EB
:1046B800935100018F5B000194510001905B000150
:1046C80095510001915B000196810001D8909533C6
:1046D80094339333923300019A2FCDD796C08EF03E
:1046E80097C08FF098C090F099C091F012000450D4
:1046F800D8B405D0015002100310D8A40CD0000E75
:10470800016E000E026E000E036E1200042AD8908D
:10471800033202320132000E0114066E000E02143A
:10472800076EFE0E0314086E065007100810D8B462
:104738000CD0ECD7042A010E0126000E0222000E2E
:104748000322D890033202320132000E0114066EA1
:10475800000E0214076EFF0E0314086E06500710B1
:104768000810D8B406D0E6D70406D8900136023629
:10477800033602BE03D0020E0460F6D704A0029EE0
:10478800D8900432045003120550D8A4038E01C0F7
:1047980001F002C002F003C003F01200000E000195
:1047A800936F00018FAF08D000018E6D8F1FD8B0B6
:1047B8008F2B010E0001936F000191AF05D000010E
:1047C800906D911FD8B0912B00019051000191116B
:1047D800D8B426D0010E0001926F06D00001D890FF
:1047E800903791370001922B000191AFF7D7000164
:1047F800905100018E5D0001915100018F59D8A0A0
:1048080008D00001905100018E5F00019151000114
:104818008F5B0001D890913390330001922FE7D736
:10482800000193510001D8B405D000018E6D8F1F8F
:10483800D8B08F2B8EC08EF08FC08FF01200000181
:104848009F510001A0110001A1110001A211D8B4CB
:104858003AD0010E0001A36F08D00001D8909F370D
:10486800A037A137A2370001A32B0001A2AFF5D7CB
:1048780000019F5100019B5D0001A05100019C595E
:104888000001A15100019D590001A25100019E594A
:10489800D8A010D000019F5100019B5F0001A051DA
:1048A80000019C5B0001A15100019D5B0001A25128
:1048B80000019E5B0001D890A233A133A0339F333F
:1048C8000001A32FD5D79BC09BF09CC09CF09DC036
:1048D8009DF09EC09EF012000600E9CF82F0EACF5C
:1048E80083F0E1CF84F0E2CF85F0D9CF86F0DACF3C
:1048F80087F0F3CF88F0F4CF89F0F6CF8AF0F7CFBE
:104908008BF0F8CF8CF0F5CF8DF0F2A403D0AEEC9D
:1049180012F00DD0F2A203D03EEC1DF008D0F0A2A8
:1049280003D0EBEC2AF003D0F0B03FEC2AF08DC0B6
:10493800F5FF8CC0F8FF8BC0F7FF8AC0F6FF89C06F
:10494800F4FF88C0F3FF87C0DAFF86C0D9FF85C0AF
:10495800E2FF84C0E1FF83C0EAFF82C0E9FF81C0B3
:10496800FBFF80C0FAFF7E9211003CAE16D03AC021
:1049780040F03BC041F03CC042F0401E411E421E88
:10498800402A000E41224222000E40243A6E000EB8
:1049980041203B6E800E42203C6E3FAE16D03DC09B
:1049A80040F03EC041F03FC042F0401E411E421E52
:1049B800402A000E41224222000E40243D6E000E85
:1049C80041203E6E800E42203F6E000E3A1A000EC5
:1049D8003B1A800E3C1A000E3D1A000E3E1A800E3D
:1049E8003F1A3D503A5C3E503B583F503C58D8B077
:1049F80002D0D8901200D8801200336E335074EC75
:104A080029F001C031F002C032F031C00FF032C0DD
:104A180010F0000E126E050E116E91EC2AF00FC008
:104A280015F010C016F091EC29F015C019F016C059
:104A38001AF017C01BF0000E1C6E800E1D6E440E7F
:104A48001E6EE7EC21F019C02BF01AC02CF01BC029
:104A58002DF02BC015F02CC016F02DC017F0000E4D
:104A6800186E960E196E430E1A6EF3EC20F015C0F0
:104A78002EF016C02FF017C030F02EC028F02FC02F
:104A880029F030C02AF01200336E335074EC29F04C
:104A980001C031F002C032F031C00FF032C010F066
:104AA800000E126E050E116E91EC2AF00FC015F073
:104AB80010C016F091EC29F015C019F016C01AF0C4
:104AC80017C01BF0000E1C6E800E1D6E440E1E6E6D
:104AD800E7EC21F019C02BF01AC02CF01BC02DF008
:104AE8002BC015F02CC016F02DC017F0000E186E54
:104AF800200E196E420E1A6EF3EC20F015C02EF03F
:104B080016C02FF017C030F02EC028F02FC029F0A3
:104B180030C02AF0120001EE54F0400EEE6AE806AA
:104B2800FDE100EED9F0100EEE6AE806FDE1796AC3
:104B3800786A776A766A580EF66E500EF76E000E2F
:104B4800F86E01EE00F010EE54F00900F5CFEEFF1C
:104B5800E550E150FAE14A0EF66E560EF76E000E79
:104B6800F86E00EEE9F010EE08F00900F5CFEEFF60
:104B7800E550E150FAE1520EF66E560EF76E000E51
:104B8800F86E00EE7AF010EE04F00900F5CFEEFFB3
:104B9800E550E150FAE17E907E920001E8EF0CF0DA
:104BA800000E0C6E0AAE06D0096C0A1ED8B00A2A8E
:104BB800010E0C6E08AE06D0076C081ED8B0082A85
:104BC800010E0C1A000E0E6E000E0D6E09500A1022
:104BD800D8B41CD0010E0B6E04D0D89009360A3612
:104BE8000B2A0AAEFAD7D8900D360E360950075C54
:104BF8000A500858D8A005D00950075E0A50085A2C
:104C08000D80D8900A3209320B2EEDD70C50D8B44B
:104C180004D00D6C0E1ED8B00E2A0DC007F00EC0C1
:104C280008F01200000E096E000E0A6E000E0B6EE0
:104C3800000E0C6E0550061007100810D8B42AD0C4
:104C4800010E0D6E06D0D8900536063607360836A2
:104C58000D2A08AEF8D7D89009360A360B360C3626
:104C68000550015C06500258075003580850045874
:104C7800D8A009D00550015E0650025A0750035AC1
:104C88000850045A0980D890083207320632053293
:104C98000D2EE1D709C001F00AC002F00BC003F0E5
:104CA8000CC004F012008E0E00019E6F08D00001A7
:104CB800D890993398339733963300019E2B000E82
:104CC8000001961500019A6F000E0001971500016A
:104CD8009B6F000E0001981500019C6FFF0E0001EC
:104CE800991500019D6F00019A5100019B11000167
:104CF8009C1100019D11D8A4DAD796C08EF097C0F8
:104D08008FF098C090F09EC091F0000E0001926F55
:104D18006DEC20F08EC096F08FC097F090C098F0A0
:104D28001200000E0001A76F000EA66F0001A4512B
:104D38000001A511D8B42CD0010E0001A86F06D02F
:104D48000001D890A437A5370001A82B0001A5AF12
:104D5800F7D70001D890A637A7370001A451000162
:104D6800A25D0001A5510001A359D8A00AD00001F5
:104D7800A4510001A25F0001A5510001A35B00013D
:104D8800A6810001D890A533A4330001A82FE1D74C
:104D9800A6C0A2F0A7C0A3F0120084948492000ECB
:104DA80000018F6F190E8E6FF9EC29F0010E0001CA
:104DB800986F030E0001986501D00DD0030E6AECC0
:104DC8002AF0000E00018F6F060E8E6FF9EC29F0A5
:104DD8000001982BEED7020E6AEC2AF0000E0001B3
:104DE800986F030E0001986501D0120000019851D8
:104DF800010DE90EF324D96E000EF420DA6EDF50AF
:104E08000001966F000ED6EC27F00001982BE9D729
:104E1800000E066E02AE06D0016C021ED8B0022A41
:104E2800010E066E04AE04D0036C041ED8B0042A2A
:104E380003500410D8B418D0010E056E04D0D890D1
:104E480003360436052A04AEFAD70350015C045031
:104E58000258D8A004D00350015E0450025AD890DA
:104E680004320332052EF1D70650D8B404D0016CB1
:104E7800021ED8B0022A01C001F002C002F01200DE
:104E88001250131014101510D8B424D0010E166E39
:104E980006D0D8901236133614361536162A15AEA3
:104EA800F8D712500E5C13500F5814501058155064
:104EB8001158D8A008D012500E5E13500F5A145033
:104EC800105A1550115AD890153214321332123222
:104ED800162EE7D70EC00EF00FC00FF010C010F05E
:104EE80011C011F0120000019B6F22D0010E0001C9
:104EF800966F000ED6EC27F0000E00018F6F020EA1
:104F08008E6FF9EC29F01200020E0001986F010E65
:104F18007FEC28F01200100E0001966F000ED6EC00
:104F280027F012009BC096F0010ED6EC27F0120075
:104F380000019B51080AD8B4EED7020AD8B4E4D7C6
:104F4800060AD8B4D3D7EED78E0E116E06D0D890F5
:104F58000C320B320A320932112A000E09140D6E76
:104F6800000E0A140E6E000E0B140F6EFF0E0C14BA
:104F7800106E0D500E100F101010D8A4E8D709C0ED
:104F880001F00AC002F00BC003F011C004F0000EDB
:104F9800056E7BEC23F001C009F002C00AF003C0E3
:104FA8000BF012000001976F000197B102D08494B2
:104FB80001D08484010EF1EC28F0010EF1EC28F008
:104FC8008492000196390F0B6AEC2AF00001965181
:104FD8000F0B6AEC2AF0000197510001D8B405D0F4
:104FE800320E0400E82EFDD71200000E00018F6F6C
:104FF800020E8E6FF9EC29F012000E6E1ED0010E13
:10500800096E000ECDEC28F0000E026E020E016E45
:10501800C8EC2AF01200020E0B6E010E13EC29F0F8
:105028001200100E096E000ECDEC28F012000EC012
:1050380009F0010ECDEC28F012000E50080AD8B481
:10504800F0D7020AD8B4E7D7060AD8B4D8D7EFD72A
:105058005345432020202020202020202000534595
:1050680043202020202020202020200031305345BC
:10507800432020202020202020004D494E202020A1
:10508800202020202020200031304D494E20202093
:1050980020202020200048522020202020202020CE
:1050A80020202000000E1A6E000E196E17501810DE
:1050B800D8B41CD0010E1B6E04D0D8901736183601
:1050C8001B2A18AEFAD7D89019361A361750155C1D
:1050D80018501658D8A005D01750155E1850165AF3
:1050E8001980D890183217321B2EEDD719C015F039
:1050F8001AC016F012000001996F0AD0800E05D070
:10510800C00E03D0900E01D0D00E00019A6F0ED0C1
:1051180000019851010AD8B4F1D7030AD8B4F0D7DE
:10512800010AD8B4EFD7070AD8B4EED70001990519
:1051380000019A2700019A5180090001966F000E1C
:10514800D6EC27F012000001CA510001CB11000172
:10515800CC11D8B409D0000E0001CA1B000E000102
:10516800CB1B800E0001CC1BC7C0BBF0C8C0BCF075
:10517800C9C0BDF0CAC0BEF0CBC0BFF0CCC0C0F043
:10518800A1EC19F0BBC0C7F0BCC0C8F0BDC0C9F0E5
:1051980012000A6E0AB002D0849401D08484010EF1
:1051A80028EC2AF0010E28EC2AF0849209380F0B1B
:1051B800DAEC2AF009500F0BDAEC2AF00A50D8B4CE
:1051C80005D0320E0400E82EFDD71200000E026E44
:1051D800020E016EC8EC2AF012000001916F000E59
:1051E8000001936F000E926F04D004000001924BEF
:1051F800932B0001915100018E6F8F6B000192512A
:1052080000018E5D00018F51800A0001906F00013E
:105218009351800A00019059D8A01200E6D70C6E6D
:1052280009D0800E05D0C00E03D0900E01D0D00E4C
:105238000D6E0DD00B50010AD8B4F3D7030AD8B4B9
:10524800F2D7010AD8B4F1D7070AD8B4F0D70C04BA
:105258000D260D508009096E000ECDEC28F01200C5
:10526800000EF26EF288F28A000EF16EF19C000ECA
:10527800F06EF086F088F19AF198000ED56E1BEC6E
:105288002BF0D09E000E9D6E000E9E6E000EA06E3E
:10529800F28EF28CD550F80B0309D56ED58E12001C
:1052A8003D503E103F10D8B406D0000E3D1A000EF7
:1052B8003E1A800E3F1A3AC02EF03BC02FF03CC079
:1052C80030F03DC031F03EC032F03FC033F0D5EC95
:1052D8001AF02EC03AF02FC03BF030C03CF012005C
:1052E800076E07C003F003460346C2500318C30BFA
:1052F8000318C26EC282C2B2FED7C350C4CF03F035
:10530800046A03C004F0036A0310056E0450066EB5
:1053180005C001F006C002F01200000E186E16AEAD
:1053280006D0156C161ED8B0162A010E186E15C0B8
:1053380001F016C002F0036A8E0E046E18C005F064
:105348007BEC23F001C015F002C016F003C017F083
:10535800120000019C5100019E03F3CFA0F0F4CF8E
:10536800A1F000019C5100019F03F3500001A12707
:1053780000019D5100019E03F3500001A127A0C028
:105388009CF0A1C09DF012008EC092F08FC093F0E7
:1053980006D00001924B932B0001904B912B90C0AB
:1053A800D9FF91C0DAFF92C0E1FF93C0E2FFDFCFDF
:1053B800E7FFE750D8B41200ECD700018E51000186
:1053C8008F1100019011D8B409D0000E00018E1B76
:1053D800000E00018F1B800E0001901B8EC08EF006
:1053E8008FC08FF090C090F01200000E0001916FF6
:1053F800000E906F07D0FA0E0400E82EFDD70001CA
:10540800904B912B0001905100018E5D000191514C
:1054180000018F59D8A01200EED701C005F002C0D4
:1054280006F004D0054A062A034A042A03C0D9FF15
:1054380004C0DAFF05C0E1FF06C0E2FFDFCFE7FFE7
:10544800E750D8B41200EED7046E000E066E000EB8
:10545800056E03D00400054A062A0450016E026A4C
:105468000550015C0250800A036E0650800A0358FA
:10547800D8A01200EFD7F0900001DF510001E01131
:10548800D8B41200000E776E010E766E000E796E9B
:10549800010E786E828A76B002D0839201D0838220
:1054A80012000001906F000E00018F6F3A0E00018C
:1054B800906107D02F0E0001906503D0010E000106
:1054C8008F6F8FC08EF000018E3112000001956F32
:1054D80095C094F00001943B8350000194190F0B80
:1054E8009419836E010EF1EC28F08482040000F018
:1054F800849212000AD09CC0D9FF9DC0DAFFDF5009
:1055080077EC27F000019C4B9D2B9CC0D9FF9DC0D8
:10551800DAFFDF50D8B41200EED70F501102F3CFE4
:1055280013F0F4CF14F00F501202F3501426105059
:105538001102F350142613C00FF014C010F012001B
:10554800015002100310D8B406D0000E011A000E44
:10555800021A800E031A01C001F002C002F003C053
:1055680003F0120009D00FC0D9FF10C0DAFFDF50D6
:1055780001EC28F00F4A102A0FC0D9FF10C0DAFF3B
:10558800DF50D8B41200EFD7000E046E000E036E81
:1055980006D0FA0E0400E82EFDD7034A042A035069
:1055A800015C04500258D8A01200F3D7086E08C056
:1055B80007F0073A835007180F0B0718836E010E80
:1055C80028EC2AF08482040000F084921200F09201
:1055D800000E776E000E766E000E796E000E786EF5
:1055E800829A76B002D0839201D083821200036E31
:1055F800000E026E3A0E036005D02F0E036402D02F
:10560800010E026E02C001F0013012009268936828
:10561800800E946E000E956E000E966E12000C0EA3
:10562800C16E000EC26EC280890EC06E12000B0ED3
:10563800D76EDC0ED66E12000B0ED76EDC0ED66E51
:0E5648001200280C0106204F4E004F4646006F
:10FF000000010000000A00000064000000E8030097
:10FF10000010270000A086010040420F0080969844
:10FF20000000E1F50500CA9A3B00803FCDCC3DD7EB
:10FF3000233C12833AB7D138C62737388635C0D626
:10FF400033CC2B32708930E7DB2EE53C1E42A20D0C
:10FF500000803F00204100C842007A44401C4650C7
:10FF6000C34724744997184BBCBE4C6B6E4E0315A7
:10FF70005079AD60F3497154696D65203A202530A0
:10FF800032643A253032643A2530326420004D44E0
:10FF90003A534543202020202020202020200054B8
:10FFA000696D65203A2030303A30303A30302000E8
:10FFB00043543A25352E31664320434B3A4F46464B
:10FFC0000053503A25352E3166432048543A4F4667
:10FFD000460043543A25352E31664320434B3A259B
:10FFE000730053503A25352E3166432048543A2544
:10FFF0007300286E756C6C29004D443A257300001F
:020000040020DA
:08000000FFFFFFFFFFFFFFFF00
:020000040030CA
:0E000000FF011F1FFF8385FF0FC00FE00F40A1
:00000001FF
