:04030000A2EF0EF06A
:10100000002041686D6164202D2D2059616869615F
:10101000200020202A2A2A524553554C542A2A2A95
:101020002000454E544552204E554D2031203D2044
:1010300000454E544552204E554D2032203D200053
:10104000256320256320256320203D2000454E5444
:101050004552204F50203D200000D4EC0EF0E5EC2E
:101060000DF0400E016E000E026E010E036E100EAA
:10107000046E26EC0DF0010E0B6E010E65EC0EF009
:10108000400E0F6E000E106EFDEC0EF0000E346E72
:10109000000E336E34BE06D034500DE1050E335CC5
:1010A000D8B009D0030E026EE80E016E0FEC0FF0FF
:1010B000334A342AEFD70C0E16EC0EF00400000E63
:1010C000026EC80E016E0FEC0FF0400E016E000EA6
:1010D000026E220E036E100E046E26EC0DF0010E51
:1010E0000B6E010E65EC0EF0400E0F6E000E106ED2
:1010F000FDEC0EF0000E3C6E0F0E3B6E32EC0FF06E
:101100003D6E3D50D7EC0CF001C039F002C03AF012
:10111000010E0B6E3B5065EC0EF03D5016EC0EF0E0
:10112000030E026EE80E016E0FEC0FF00C0E16ECC3
:101130000EF0400E016E000E026E310E036E100EA8
:10114000046E26EC0DF0010E0B6E010E65EC0EF038
:10115000400E0F6E000E106EFDEC0EF0000E3C6E99
:101160000F0E3B6E32EC0FF03F6E3F50D7EC0CF0A1
:1011700001C037F002C038F0010E0B6E3B5065EC39
:101180000EF03F5016EC0EF0030E026EE80E016EEC
:101190000FEC0FF00C0E16EC0EF0400E016E000E70
:1011A000026E4D0E036E100E046E26EC0DF0010E55
:1011B0000B6E010E65EC0EF0400E0F6E000E106E01
:1011C000FDEC0EF0000E3C6E0B0E3B6E32EC0FF0A1
:1011D0003E6E010E0B6E3B5065EC0EF03E5016EC71
:1011E0000EF0030E026EE80E016E0FEC0FF00C0E07
:1011F00016EC0EF0400E016E000E026E120E036E23
:10120000100E046E26EC0DF0010E0B6E010E65EC57
:101210000EF0400E0F6E000E106EFDEC0EF0400E44
:10122000016E000E026E400E036E100E046E3DC085
:1012300005F0066A3EC007F0086A3FC009F00A6A76
:1012400026EC0DF0020E0B6E010E65EC0EF0400E5A
:101250000F6E000E106EFDEC0EF0000E3C6E0B0ECD
:101260003B6E66D039503724096E3A5038200A6EEA
:1012700086EC0EF009C027F00AC028F00BC029F058
:1012800090EC0AF062D037C031F038C032F0311E35
:10129000321E314A322A39503124096E3A503220F6
:1012A0000A6E86EC0EF009C027F00AC028F00BC0C9
:1012B00029F090EC0AF049D039C001F03AC002F0B0
:1012C00037C003F038C004F0EAEC0EF001C009F0BA
:1012D00002C00AF086EC0EF009C027F00AC028F020
:1012E0000BC029F090EC0AF030D039C009F03AC0B8
:1012F0000AF086EC0EF009C00DF00AC00EF00BC02B
:101300000FF037C009F038C00AF086EC0EF009C0C3
:1013100010F00AC011F00BC012F00DEC0CF00DC073
:1013200027F00EC028F00FC029F090EC0AF00DD085
:101330003E502A0AD8B4C0D7010AD8B493D7060AB7
:10134000D8B4A1D7020AD8B4D0D7000E366E000E9A
:10135000356E36BE06D036500DE10A0E355CD8B07B
:1013600009D0030E026EE80E016E0FEC0FF0354A45
:10137000362AEFD70C0E16EC0EF0A0D681908182A3
:101380008184818681B80AD0000E026EFA0E016E49
:101390000FEC0FF081A8FED7370E120081BA0AD0E9
:1013A000000E026EFA0E016E0FEC0FF081AAFED74E
:1013B000380E120081BC0AD0000E026EFA0E016EC9
:1013C0000FEC0FF081ACFED7390E120082B00AD0BC
:1013D000000E026EFA0E016E0FEC0FF082A0FED727
:1013E0002F0E1200818081928184818681B80AD07B
:1013F000000E026EFA0E016E0FEC0FF081A8FED700
:10140000340E120081BA0AD0000E026EFA0E016E7E
:101410000FEC0FF081AAFED7350E120081BC0AD066
:10142000000E026EFA0E016E0FEC0FF081ACFED7CB
:10143000360E120082B00AD0000E026EFA0E016E55
:101440000FEC0FF082A0FED7780E1200818081820F
:101450008194818681B80AD0000E026EFA0E016E68
:101460000FEC0FF081A8FED7310E120081BA0AD01E
:10147000000E026EFA0E016E0FEC0FF081AAFED77D
:10148000320E120081BC0AD0000E026EFA0E016EFE
:101490000FEC0FF081ACFED7330E120082B00AD0F1
:1014A000000E026EFA0E016E0FEC0FF082A0FED756
:1014B0002D0E1200818081828184819681B80AD0AC
:1014C000000E026EFA0E016E0FEC0FF081A8FED72F
:1014D000430E120081BA0AD0000E026EFA0E016E9F
:1014E0000FEC0FF081AAFED7300E120081BC0AD09B
:1014F000000E026EFA0E016E0FEC0FF081ACFED7FB
:101500003D0E120082B00AD0000E026EFA0E016E7D
:101510000FEC0FF082A0FED72B0E12006E0E120001
:10152000000E2C6E000E2E6E000E2D6E000E0C6E38
:10153000200E0D6E410E0E6E27C009F028C00AF075
:1015400029C00BF093EC0BF009C018F00AC019F099
:101550000BC01AF019EC0BF018C02AF019C02BF0D0
:1015600027C018F028C019F029C01AF019EC0BF0A8
:1015700018C02FF019C030F030AE0ED02F6C301ED6
:10158000D8B0302A020E0B6E3B5065EC0EF03B4A91
:101590003C2A2D0E16EC0EF02FC001F030C002F0E8
:1015A000000E046E0A0E036E6BEC0DF001502E6EF1
:1015B0002E50D8B40BD0020E0B6E3B5065EC0EF0E3
:1015C0003B4A3C2A2E50300F16EC0EF02E500A0DDE
:1015D000F35000082F242C6E020E0B6E3B5065EC6E
:1015E0000EF03B4A3C2A2C50300F16EC0EF0020E47
:1015F0000B6E3B5065EC0EF03B4A3C2A2E0E16EC6F
:101600000EF02AC001F02BC002F0000E046E0A0E8C
:10161000036EADEC0DF00150300F2D6E020E0B6E0F
:101620003B5065EC0EF03B4A3C2A2D5016EC0EF078
:1016300012001AC01CF01D6A1E6A19341C3601E320
:101640001D801C50266E2650D8A409D0000E186E9E
:10165000000E196E000E1A6E000E1B6E1200170E91
:101660001C6E18C01DF019C01EF01AC01FF01C28F7
:10167000206E04D0D8901F321E321D32202EFAD791
:101680001D50216E198EFF0E1816FF0E1916000E32
:101690001A161850226E1950236E1A50246E256A9D
:1016A0008E0E265E26AE16D02650800A8F0FD8B03A
:1016B00009D0000E186E000E196E000E1A6E000E84
:1016C0001B6E1200D8902532243223322232263E5D
:1016D000F9D715D0170E26640FD0000E186E000E25
:1016E000196E000E1A6E000E1B6E1200D890223674
:1016F00023362436253626062650D8A4F7D721507F
:10170000D8B408D0251E241E231E226C000E2322CE
:101710002422252222C018F023C019F024C01AF078
:1017200025C01BF012000BC00FF0106A116A0A34BA
:101730000F3601E310800F50126E1250D8A407D05C
:10174000000E096E000E0A6E000E0B6E12000EC027
:101750000FF0106A116A0D340F3601E310800F503C
:10176000176E1750D8A407D0000E096E000E0A6E2F
:10177000000E0B6E120017507B0F12260BC017F0D5
:101780000E50171A800E17160A8E0D8EFF0E0C16AD
:10179000FF0E0D16000E0E16000E136E000E146EC8
:1017A000000E156E070E166E09A006D00C501326FB
:1017B0000D5014220E501522D8900B320A320932E5
:1017C000D8900C360D360E36162EEED7090E166E44
:1017D00009A006D00C5013260D5014220E501522CD
:1017E000D8900B320A320932D890153214321332A3
:1017F000162EEED713C001F014C002F015C003F08E
:1018000012C004F017C005F080EC0CF001C009F024
:1018100002C00AF003C00BF012000FC013F0146AEC
:10182000156A0E34133601E3148013501A6E1A50E1
:10183000D8A407D0000E0D6E000E0E6E000E0F6EB7
:10184000120012C013F0146A156A1134133601E342
:10185000148013501B6E1B50D8A407D0000E0D6EC1
:10186000000E0E6E000E0F6E1200000E176E000EB0
:10187000186E000E196E1B50890F1A5E0FC01BF0F8
:1018800012501B1A800E1B160E8EFF0E0D16FF0E29
:101890000E16000E0F16118EFF0E1016FF0E1116EB
:1018A000000E1216180E166ED89017361836193606
:1018B00010500D5C11500E5812500F58D8A007D080
:1018C00010500D5E11500E5A12500F5A1780D890BA
:1018D0000D360E360F36162EE7D717C001F018C09A
:1018E00002F019C003F01AC004F01BC005F080EC30
:1018F0000CF001C00DF002C00EF003C00FF012009A
:101900000450D8B405D0015002100310D8A40CD054
:10191000000E016E000E026E000E036E1200042A0D
:10192000D890033202320132000E0114066E000E0E
:101930000214076EFE0E0314086E065007100810FE
:10194000D8B40CD0ECD7042A010E0126000E0222D6
:10195000000E0322D890033202320132000E01142D
:10196000066E000E0214076EFF0E0314086E06507A
:1019700007100810D8B406D0E6D70406D890013670
:101980000236033602BE03D0020E0460F6D704A06E
:10199000029ED8900432045003120550D8A4038E3E
:1019A00001C001F002C002F003C003F01200036E98
:1019B00029D0000E026E000E016E1200000E026EA3
:1019C000010EFAD7000E026E020EF6D7000E026E5E
:1019D000030EF2D7000E026E040EEED7000E026E5A
:1019E000050EEAD7000E026E060EE6D7000E026E56
:1019F000070EE2D7000E026E080EDED7000E026E52
:101A0000090EDAD70350300AD8B4D3D7010AD8B4B4
:101A1000D5D7030AD8B4D6D7010AD8B4D7D7070A7E
:101A2000D8B4D8D7010AD8B4D9D7030AD8B4DAD7EA
:101A3000010AD8B4DBD70F0AD8B4DCD7010AD8B46E
:101A4000DDD7000E026E000E016E1200050E0C6E48
:101A5000000E0D6E2DD0250E0E18D8B404D010D067
:101A6000014A022A25D0000E0B6E11D00CC0D9FFFE
:101A70000DC0DAFFDF500E6E020E0C26000E0D2296
:101A800001C0D9FF02C0DAFF0EC0DFFFE9D703C0F3
:101A9000F6FF04C0F7FF034A042A0800F5CF0EF052
:101AA0000E50000AD8B410D0630AD8B4DFD7E8D7F4
:101AB00003C0F6FF04C0F7FF034A042A0800F5CF6D
:101AC0000EF00E50D8A4C7D701C0D9FF02C0DAFF6C
:101AD000000EDF6E1200000E066E04AE06D0036C20
:101AE000041ED8B0042A010E066E02AE06D0016CA8
:101AF000021ED8B0022A010E061A000E086E000E51
:101B0000076E03500410D8B41CD0010E056E04D02B
:101B1000D89003360436052A04AEFAD7D890073693
:101B200008360350015C04500258D8A005D0035079
:101B3000015E0450025A0780D89004320332052E09
:101B4000EDD70650D8B404D0076C081ED8B0082AC8
:101B500007C001F008C002F01200000E066E02AECF
:101B600006D0016C021ED8B0022A010E066E04AE29
:101B700004D0036C041ED8B0042A03500410D8B457
:101B800018D0010E056E04D0D89003360436052A0D
:101B900004AEFAD70350015C04500258D8A004D018
:101BA0000350015E0450025AD89004320332052ECD
:101BB000F1D70650D8B404D0016C021ED8B0022A66
:101BC00001C001F002C002F0120083928396000E61
:101BD000026E190E016E0FEC0FF0010E0B6E030E6C
:101BE0000B6401D00BD0030E21EC0FF0000E026E3F
:101BF000060E016E0FEC0FF00B2AF1D7020E21EC4E
:101C00000FF0000E0B6E030E0B6401D012000B5090
:101C1000010D500EF324D96E000EF420DA6EDF5061
:101C2000096E000E41EC0EF00B2AEDD70E6E1ED0A1
:101C3000010E096E000E41EC0EF0000E026E020E57
:101C4000016E0FEC0FF01200020E0B6E010E65EC30
:101C50000EF01200100E096E000E41EC0EF0120094
:101C60000EC009F0010E41EC0EF012000E50080AF1
:101C7000D8B4F0D7020AD8B4E7D7060AD8B4D8D770
:101C8000EFD70A6E0AB002D0839201D08382010E90
:101C9000BDEC0EF0010EBDEC0EF0839609380F0B73
:101CA00021EC0FF009500F0B21EC0FF00A50D8B4C3
:101CB00005D0320E0400E82EFDD71200000E026E91
:101CC000020E016E0FEC0FF012000C6E09D0800EA8
:101CD00005D0C00E03D0900E01D0D00E0D6E0DD0E9
:101CE0000B50010AD8B4F3D7030AD8B4F2D7010ACB
:101CF000D8B4F1D7070AD8B4F0D70C040D260D508C
:101D00008009096E000E41EC0EF01200000E0C6E00
:101D10000AAE06D0096C0A1ED8B00A2A010E0C6E53
:101D200009C001F00AC002F0036A8E0E046E0CC0F6
:101D300005F080EC0CF001C009F002C00AF003C00D
:101D40000BF0120000EE37F0190EEE6AE806FDE126
:101D50007A0EF66E1E0EF76E000EF86E00EE50F064
:101D600010EE04F00900F5CFEEFFE550E150FAE186
:101D7000000EF86E00012DEF08F0066E000E056EE5
:101D8000000E046E03D00400044A052A0650016EBA
:101D9000026A0450015C0250800A036E0550800AFA
:101DA0000358D8A01200EFD7000E8D6E8DCF8CFF98
:101DB0008CCF8BFF8BCF8AFF8ACF89FF9268F00E82
:101DC000936E810E946E000E956E000E966E000E50
:101DD000F16E120001500302F3CF05F0F4CF06F0CC
:101DE00001500402F350062602500302F350062667
:101DF00005C001F006C002F0120009D00FC0D9FFE3
:101E000010C0DAFFDF5016EC0EF00F4A102A0FC098
:101E1000D9FF10C0DAFFDF50D8B41200EFD7000EA0
:101E2000046E000E036E06D0FA0E0400E82EFDD7F5
:101E3000034A042A0350015C04500258D8A012003F
:101E4000F3D7086E08C007F0073A835007180F0B46
:101E50000718836E010EBDEC0EF08386040000F0BF
:101E6000839612006E0E02D0BEEC09F0056E6E0E67
:0E1E70000518D8B4F9D705501200280C010649
:020000040020DA
:08000000FFFFFFFFFFFFFFFF00
:020000040030CA
:0E000000FF011F1FFF8385FF0FC00FE00F40A1
:00000001FF
