:040300008BEF01F08E
:100308003882FACF01F0FBCF02F0DAED08F0B2EF55
:0203180009F0EA
:10100000002041686D6164202D2D2059616869615F
:10101000200A002041686D6164202D2D20596168EF
:101020006961200025630000000EF26EE6EC09F015
:1010300010EC0AF011EC09F0240E0F6E000E106E89
:10104000130E116E100E126E95EC08F0010E196E53
:10105000010E91EC09F0240E1D6E000E1E6E22ECA6
:101060000AF0000E206E000E1F6E20BE06D020502B
:101070000DE1140E1F5CD8B009D0030E106EE80EFF
:101080000F6E34EC0AF01F4A202AEFD70C0E42EC08
:1010900009F0010E106E100E116EFBEC09F0000E3F
:1010A000226E010E216E0400000E106EC80E0F6E2F
:1010B00034EC0AF057EC0AF0236E2A0E2318D8B449
:1010C00030D0600E236405D07B0E236002D0E00E8A
:1010D0002326235065EC0AF0240E0F6E000E106ECE
:1010E000240E116E100E126E23C013F0146A95ECCC
:1010F00008F0010E196E215091EC09F0214A222AC4
:10110000240E1D6E000E1E6E22EC0AF022BECBD7FE
:10111000225004E1110E215CD8A0C5D76DEC0AF075
:10112000C2D70C0E42EC09F0BAD7130E166E000EA1
:10113000176E2DD0250E1818D8B404D010D00F4A31
:10114000102A25D0000E156E11D016C0D9FF17C079
:10115000DAFFDF50186E020E1626000E17220FC09F
:10116000D9FF10C0DAFF18C0DFFFE9D711C0F6FFC2
:1011700012C0F7FF114A122A0800F5CF18F01850D4
:10118000000AD8B410D0630AD8B4DFD7E8D711C0AA
:10119000F6FF12C0F7FF114A122A0800F5CF18F027
:1011A0001850D8A4C7D70FC0D9FF10C0DAFF000E5F
:1011B000DF6E12000600E9CF03F0EACF04F0E1CFC2
:1011C00005F0E2CF06F0D9CF07F0DACF08F0F3CF81
:1011D00009F0F4CF0AF0F6CF0BF0F7CF0CF0F8CF10
:1011E0000DF0F5CF0EF00EC0F5FF0DC0F8FF0CC0EE
:1011F000F7FF0BC0F6FF0AC0F4FF09C0F3FF08C0F9
:10120000DAFF07C0D9FF06C0E2FF05C0E1FF04C056
:10121000EAFF03C0E9FF02C0FBFF01C0FAFF3892FA
:10122000110083928396000E106E190E0F6E34EC2F
:101230000AF0010E196E030E196401D00BD0030ED3
:1012400046EC0AF0000E106E060E0F6E34EC0AF03B
:10125000192AF1D7020E46EC0AF0000E196E030EA1
:10126000196401D012001950010D340EF324D96E07
:10127000000EF420DA6EDF50176E000E6DEC09F0F0
:10128000192AEDD71C6E1ED0010E176E000E6DECE4
:1012900009F0000E106E020E0F6E34EC0AF0120010
:1012A000020E196E010E91EC09F01200100E176E6D
:1012B000000E6DEC09F012001CC017F0010E6DEC71
:1012C00009F012001C50080AD8B4F0D7020AD8B4AA
:1012D000E7D7060AD8B4D8D7EFD7186E18B002D01F
:1012E000839201D08382010ECFEC09F0010ECFEC86
:1012F00009F0839617380F0B46EC0AF017500F0BC6
:1013000046EC0AF01850D8B405D0320E0400E82E8E
:10131000FDD71200000E106E020E0F6E34EC0AF0B4
:1013200012001A6E09D0800E05D0C00E03D0900EA8
:1013300001D0D00E1B6E0DD01950010AD8B4F3D7CE
:10134000030AD8B4F2D7010AD8B4F1D7070AD8B43F
:10135000F0D71A041B261B508009176E000E6DEC87
:1013600009F0120000EE24F0100EEE6AE806FDE12E
:10137000E60EF66E140EF76E000EF86E00EE34F008
:1013800010EE04F00900F5CFEEFFE550E150FAE170
:1013900038903892000EF86E000114EF08F0146EC9
:1013A000000E136E000E126E03D00400124A132AB0
:1013B00014500F6E106A12500F5C1050800A116E9C
:1013C0001350800A1158D8A01200EFD70F0EC16E2B
:1013D000000E8D6E8DCF8CFF8CCF8BFF8BCF8AFF55
:1013E0008ACF89FF92689368800E946E000E956E86
:1013F000000E966E12000AD010C0F6FF11C0F7FF63
:101400000800F55065EC0AF0104A112A10C0F6FFEA
:1014100011C0F7FF0800F5500009D8B41200ECD74E
:10142000B896000EAC6E190EAF6E000EB06EAC84A6
:10143000AC8A000EAB6EAB88AB8EAECF0FF0AECFEA
:101440000FF0120009D01DC0D9FF1EC0DAFFDF5017
:1014500042EC09F01D4A1E2A1DC0D9FF1EC0DAFF4A
:10146000DF50D8B41200EFD7000E126E000E116ECE
:1014700006D0FA0E0400E82EFDD7114A122A1150A8
:101480000F5C12501058D8A01200F3D7166E16C079
:1014900015F0153A835015180F0B1518836E010EB1
:1014A000CFEC09F08386040000F083961200ABB401
:1014B00002D0ABA204D0AB98AB8801D004009EAAA6
:1014C000FDD7AECF0FF00F5012000F6E01D0040009
:1014D000ACA2FDD70FC0ADFF1200180E176E000EA4
:0A14E0006DEC09F01200280C010663
:020000040020DA
:08000000FFFFFFFFFFFFFFFF00
:020000040030CA
:0E000000FF011F1FFF8385FF0FC00FE00F40A1
:00000001FF
