:040000000BEF00F012
:100008007282FACF31F0FBCF32F070ED1BF070EF57
:100018001DF0CC0E0001E06F000E0001E16F99EFBA
:1000280006F0250E0001F719D8B40BD0C8C0D9FFC7
:10003800C9C0DAFFF7C0DFFF0001C84BC92B99EF31
:1000480006F0000E0001F16F000EF06F000E0001C7
:10005800E56F000EE46FCAC0F6FFCBC0F7FF000ED5
:10006800F86E0F0EF76403D00800F55005D0F6CFF0
:10007800E1FFF7CFE2FFE750A3EC20F0D8A056D07D
:10008800000E0001F16F000EF06FF0C08EF0F1C0AD
:100098008FF0000E0001916F0A0E906F27EC20F090
:1000A8008EC0F0F08FC0F1F0D00E0001D56FFF0EBA
:1000B8000001D66FCAC0F6FFCBC0F7FF000EF86E7E
:1000C8000F0EF76403D00800F55005D0F6CFE1FF16
:1000D800F7CFE2FFE7500001D76FD86B0001D55189
:1000E8000001D7270001D6510001D8230001D751BC
:1000F8000001F0270001D8510001F1230001CA4B8B
:10010800CB2BCAC0F6FFCBC0F7FF000EF86E0F0E60
:10011800F76403D00800F55005D0F6CFE1FFF7CF1C
:10012800E2FFE750A3EC20F0D8B0AFD7CAC0F6FF83
:10013800CBC0F7FF000EF86E0F0EF76403D008006F
:10014800F55005D0F6CFE1FFF7CFE2FFE7502E0AD2
:10015800D8A453D00001E58D0001CA4BCB2B000E6B
:100168000001F66F000EF56F32D0F5C08EF0F6C0C4
:100178008FF0000E0001916F0A0E906F27EC20F0AF
:10018800CAC0F6FFCBC0F7FF000EF86E0F0EF7647B
:1001980003D00800F55005D0F6CFE1FFF7CFE2FF16
:1001A800E7500001D56F0001D55100018E27000EE0
:1001B80000018F23D00E00018E250001F56FFF0E80
:1001C80000018F210001F66F0001CA4BCB2BCAC07A
:1001D800F6FFCBC0F7FF000EF86E0F0EF76403D0E2
:1001E8000800F55005D0F6CFE1FFF7CFE2FFE75062
:1001F800A3EC20F0D8A083D0B8D7000E0001F66F8A
:10020800000EF56F0001E5897AD00001E585A7D0D9
:100218000001F5510001F611D8B40ED00001E251E9
:100228000001F55D0001E3510001F659D8B004D092
:10023800F5C0E2F0F6C0E3F00001F0510001E25D24
:100248000001F1510001E359D8B009D00001E25191
:100258000001F05F0001E3510001F15B0FD0000ED7
:100268000001F16F000EF06F09D0C8C0D9FFC9C0F6
:10027800DAFF200EDF6E0001C84BC92B0001F00722
:10028800D8A0F1070001F029F0E10001F129D8B464
:1002980011D0EBD7DEC0D9FFDFC0DAFFC8C0E1FF5D
:1002A800C9C0E2FFDFCFE7FF0001DE4BDF2B000113
:1002B800C84BC92B0001E207D8A0E3070001E229D7
:1002C800E9E10001E329D8B499EF06F0E3D7E0C0EB
:1002D800D9FFE1C0DAFFDF500001F76F020E00011D
:1002E800E027000EE123F70E0001DE6F000E00018B
:1002F800DF6F000E0001E36F010EE26F89D7000186
:10030800CA510001D56F0001CB510001D66F000121
:10031800CA4BCB2BD5C0F6FFD6C0F7FF000EF86E40
:100328000F0EF76403D00800F55005D0F6CFE1FFB3
:10033800F7CFE2FFE7500001F76F0001F751000A1D
:10034800D8B4BCEF06F0630AD8B4C1D7070AD8B44A
:1003580006D0020AD8B459D70F0AD8A4C4D7070EB2
:100368000001E515D8B479D30001E5A905D0000E40
:100378000001F66F060EF56FE0C0D9FFE1C0DAFFA5
:10038800DECFF2F0DECFF3F0DDCFF4F0030E0001A4
:10039800E027000EE1230001F4AF11D0F2C098F07D
:1003A800F3C099F0F4C09AF05CEC20F098C0F2F039
:1003B80099C0F3F09AC0F4F0030E0001E413000EA4
:1003C8000001EF6F000EEE6F0001F2510001F31112
:1003D8000001F411D8B49BD0820E0001D56FFF0E36
:1003E8000001D66FF2C0D7F0F3C0D8F0F4C0D9F04E
:1003F800F5C0DAF0100E06D00001D890DA33D93300
:10040800D833D733E82EF8D70001D7510001D525C6
:100418000001EE6F000E0001D6210001EF6F000110
:10042800EE07D8A0EF07EEC08EF0EFC08FF0000EF9
:100438000001916F030E906F27EC20F08EC0EEF054
:100448008FC0EFF0EEC086F0EFC087F0000E00011D
:10045800896F0A0E886F04EC1AF086C0EEF087C028
:10046800EFF00001EFAF04D00001EE07D8A0EF07CE
:100478000001EE51000879EC0BF0A3C0E6F0A4C02F
:10048800E7F0A5C0E8F0E6C094F0E7C095F0E8C052
:1004980096F0F2C097F0F3C098F0F4C099F0BCEC75
:1004A80015F094C0E6F095C0E7F096C0E8F0E6C015
:1004B800B9F0E7C0BAF0E8C0BBF0000E0001BC6FAD
:1004C800800E0001BD6F3F0E0001BE6FA0EC19F059
:1004D8000001D8B005D00001EE07D8A0EF0717D06B
:1004E800E6C0B9F0E7C0BAF0E8C0BBF0000E000102
:1004F800BC6F200E0001BD6F410E0001BE6FA0EC65
:1005080019F00001D8A003D00001EE4BEF2B000139
:10051800F6BF08D00001F6511DE10D0E0001F55D92
:10052800D8B018D0F2C0ADF0F3C0AEF0F4C0AFF060
:100538000001F55116EC10F0A3C0B0F0A4C0B1F062
:10054800A5C0B2F06CEC11F0ADC0F2F0AEC0F3F0A3
:10055800AFC0F4F00001EFBF08D00001EF512AE16D
:100568000A0E0001EE5DD8B025D00001F25100015D
:10057800F3110001F411D8B463D0F2C0B9F0F3C09C
:10058800BAF0F4C0BBF011EC17F00001B95100014A
:10059800BA110001BB110001BC11D8A451D000014F
:1005A800EFBF4ED00001EF5105E1020E0001EE5DF4
:1005B800D8A046D0E6C0B9F0E7C0BAF0E8C0BBF0B2
:1005C800700E0001BC6F890E0001BD6F400E000166
:1005D800BE6FA0EC19F00001D8B003D00001F70EEF
:1005E80002D00001F80EEE27FF0EEF230001EE51B6
:1005F80079EC0BF0A3C0E6F0A4C0E7F0A5C0E8F0E2
:10060800F2C080F0F3C081F0F4C082F0E6C083F05D
:10061800E7C084F0E8C085F076EC13F080C0EAF01B
:1006280081C0EBF082C0ECF083C0EDF0000E000159
:10063800F26F000E0001F36F000E0001F46F33D06B
:10064800F2C0B9F0F3C0BAF0F4C0BBF011EC17F087
:10065800B9C0EAF0BAC0EBF0BBC0ECF0BCC0EDF03A
:10066800F2C0B9F0F3C0BAF0F4C0BBF0EAC088F049
:10067800EBC089F0ECC08AF0EDC08BF032EC1DF0D5
:1006880088C0BCF089C0BDF08AC0BEF058EC1FF02D
:10069800B9C0F2F0BAC0F3F0BBC0F4F0000E00012C
:1006A800EF6F000EEE6F010E0001F76F0A0E0001EA
:1006B800F719D8B41ED00001F751040D5F0EF324CA
:1006C800F66EFE0EF420F76E0900F5500001EA5DA3
:1006D8000900F5500001EB590900F5500001EC59EB
:1006E8000900F5500001ED59D8A003D00001F72BFF
:1006F800DDD7F7C0D5F00001D66BD5BFD60700010E
:10070800F5510001D5270001F6510001D62300015B
:10071800EE510001D5270001EF510001D623000159
:10072800D5510001F05F0001D6510001F15B0001D5
:10073800F5510001F611D8B404D00001F007D8A093
:10074800F107030E0001E4150001D56F000E00014A
:10075800E5150001D66F0001D5510001D611D8B4B6
:100768000ED009D0C8C0D9FFC9C0DAFF200EDF6E8D
:100778000001C84BC92B0001F007D8A0F107000100
:10078800F1BF07D00001F151EDE10001F005D8B04B
:10079800E9D7030E0001E4150001D56F000E000132
:1007A800E5150001D66F0001D5510001D611D8B466
:1007B80055D0C8C0D9FFC9C0DAFF2D0E4DD00001F1
:1007C800C84BC92B4BD0EAC080F0EBC081F0ECC01D
:1007D80082F0EDC083F00001F751040D5F0EF324A1
:1007E800F66EFE0EF420F76E0900F5CF84F00900CE
:1007F800F5CF85F00900F5CF86F00A00F5CF87F030
:1008080063EC1AF080C0E6F081C0E7F082C0E8F03F
:1008180083C0E9F0E6C08DF0E7C08EF0E8C08FF045
:10082800E9C090F00A0E0001916F000E926F000E61
:10083800936F000E946F14EC1CF08DC0E6F08EC020
:10084800E7F08FC0E8F090C0E9F00001E651300F02
:10085800C8C0D9FFC9C0DAFFDF6EB1D70001F707FA
:100868000001F729D8B40ED0AED7C8C0D9FFC9C087
:10087800DAFF300EDF6E0001C84BC92B0001EE070E
:10088800D8A0EF070001EFBF07D00001EF51EDE15D
:100898000001EE05D8B0E9D70001F6BF0CD0000181
:1008A800F65105E1090E0001F55DD8A004D0080E47
:1008B8000001F76F02D0F5C0F7F00001F751000111
:1008C800F55F000E0001F7BFFF0E0001F65B0001A7
:1008D800F7510001D8B409D0C8C0D9FFC9C0DAFFA0
:1008E8002E0EDF6E0001C84BC92B0001F75179ECC1
:1008F8000BF0A3C0DBF0A4C0DCF0A5C0DDF0F2C0B3
:1009080097F0F3C098F0F4C099F0DBC094F0DCC025
:1009180095F0DDC096F0BCEC15F094C0B9F095C028
:10092800BAF096C0BBF011EC17F0B9C0EAF0BAC043
:10093800EBF0BBC0ECF0BCC0EDF074D0EAC080F0C6
:10094800EBC081F0ECC082F0EDC083F00001F751FC
:10095800040D5F0EF324F66EFE0EF420F76E090008
:10096800F5CF84F00900F5CF85F00900F5CF86F0C2
:100978000A00F5CF87F063EC1AF080C0E6F081C07A
:10098800E7F082C0E8F083C0E9F0E6C08DF0E7C088
:100998008EF0E8C08FF0E9C090F00A0E0001916F68
:1009A800000E926F000E936F000E946F14EC1CF003
:1009B8008DC0E6F08EC0E7F08FC0E8F090C0E9F097
:1009C8000001E651300FC8C0D9FFC9C0DAFFDF6E99
:1009D8000001C84BC92BEAC08DF0EBC08EF0ECC00B
:1009E8008FF0EDC090F00001F751040D5F0EF32475
:1009F800F66EFE0EF420F76E0900F5CF91F00900AF
:100A0800F5CF92F00900F5CF93F00A00F5CF94F0F6
:100A180014EC1CF08DC0EAF08EC0EBF08FC0ECF047
:100A280090C0EDF00001F7070001F729D8B40ED007
:100A380085D7C8C0D9FFC9C0DAFF300EDF6E000104
:100A4800C84BC92B0001F507D8A0F6070001F551DE
:100A58000001F611D8B469D1ECD7E0C0D9FFE1C0E4
:100A6800DAFFDECFEAF0DDCFEBF00001000EEBBFDE
:100A7800FF0EEC6FED6F020E0001E027000EE12380
:100A88000001EDAF0CD0030E0001E4130001ED1FCF
:100A9800EC1FEB1FEA6D000EEB23EC23ED230001A6
:100AA800F5510001F611D8A40DD00001EA5100015A
:100AB800EB110001EC110001ED11D8A403D00001E5
:100AC800F54BF62B010E0001F76F0A0E0001F7191E
:100AD800D8B41ED00001F751040D5F0EF324F66E52
:100AE800FE0EF420F76E0900F5500001EA5D0900DA
:100AF800F5500001EB590900F5500001EC590900C7
:100B0800F5500001ED59D8A003D00001F72BDDD72F
:100B1800800E0001F7BF7F0E0001D56F0001F5516F
:100B28000001F75D0001F651800A0001D559D8B0DF
:100B380003D0F5C0F7F018D00001F651800A000183
:100B4800D56F0001F7510001F55D800E0001F7BF78
:100B58007F0E0001D559D8B007D00001F751000128
:100B6800F56FF66BF5BFF6070001F0510001F111C2
:100B7800D8B414D0030E0001E4150001D56F000E9F
:100B88000001E5150001D66F0001D5510001D6110D
:100B9800D8B404D00001F007D8A0F1070001E5ADF2
:100BA8001ED00001F0510001F55D0001F651800AE8
:100BB8000001D56F0001F151800A0001D559D8B064
:100BC80009D00001F5510001F05F0001F651000164
:100BD800F15B05D0000E0001F16F000EF06F800E82
:100BE8000001F7BF7F0E0001D56F0001F051000131
:100BF800F75D0001F151800A0001D559D8B00BD03A
:100C08000001F7510001F05F000E0001F7BFFF0E71
:100C18000001F15B05D0000E0001F16F000EF06FCE
:100C28000001F0510001F111D8B413D0C8C0D9FFA8
:100C3800C9C0DAFF200EDF6E0001C84BC92B0001C6
:100C4800F007D8A0F1070001F0510001F111D8A474
:100C5800EDD7030E0001E4150001D56F000E000169
:100C6800E5150001D66F0001D5510001D611D8B4A1
:100C780051D0C8C0D9FFC9C0DAFF2D0EDF6E47D0EA
:100C8800F5C0D5F0F6C0D6F00001D890D537D637E4
:100C98000001D890D537D6375F0E0001D525F66EFE
:100CA800FE0ED621F76E0900F5CF84F00900F5CFC6
:100CB80085F00900F5CF86F00A00F5CF87F0EAC085
:100CC80080F0EBC081F0ECC082F0EDC083F063EC03
:100CD8001AF080C08DF081C08EF082C08FF083C082
:100CE80090F00A0E0001916F000E926F000E936F44
:100CF800000E946F14EC1CF000018D51300F0001B0
:100D0800F76FC8C0D9FFC9C0DAFFF7C0DFFF00011D
:100D1800C84BC92B0001F507D8A0F6070001F52933
:100D2800AFE10001F629D8A4ABD70001CA510001F0
:100D3800D56F0001CB510001D66F0001CA4BCB2BF8
:100D4800D5C0F6FFD6C0F7FF000EF86E0F0EF76499
:100D580003D00800F55005D0F6CFE1FFF7CFE2FF4A
:100D6800E7500001F76F0001F751D8A415EF00F024
:100D7800C8C0D9FFC9C0DAFF000EDF6E12002AEC26
:100D880021F0E1EC20F0B4EC1EF0ADEC1DF042ECEB
:100D980021F007EC21F05FEC21F09480000E0101B6
:100DA800066F000E0101076F000E0101086F000EAB
:100DB8000101096F000E01010A6F000E01010B6F9E
:100DC800000E0101036F000E0101046F000E010106
:100DD800056F000E0101116F000E106F000E01016A
:100DE8000D6F000E0C6F000E0101176F000E166FCD
:100DF800000E0101136F000E126F000E0101156F36
:100E0800000E146F000E0101006F000E0101016F4A
:100E1800000E0101026F000E01010F6F000E0E6F30
:100E2800000E01011B6F000E1A6F9D981C0E000129
:100E3800C86F010E0001C96F740E0001CA6FFF0E62
:100E48000001CB6F0DEC00F0010E00018A6F010E5E
:100E58000AEC1FF01C0E00018E6F010E00018F6F4F
:100E6800F4EC20F02D0E0001C86F010E0001C96FCF
:100E7800960E0001CA6FFF0E0001CB6F0DEC00F05B
:100E8800020E00018A6F010E0AEC1FF02D0E000100
:100E98008E6F010E00018F6FF4EC20F03E0E000102
:100EA800C86F010E0001C96F180E0001CA6FFF0E4E
:100EB8000001CB6F0DEC00F0030E00018A6F010EEC
:100EC8000AEC1FF03E0E00018E6F010E00018F6FBD
:100ED800F4EC20F04F0E0001C86F010E0001C96F3D
:100EE800630E0001CA6FFF0E0001CB6F0DEC00F01E
:100EF800040E00018A6F010E0AEC1FF04F0E00016C
:100F08008E6F010E00018F6FF4EC20F00400000ECC
:100F18000001816FC80E806F74EC20F081A605D0A7
:100F2800530E0101D419D8A40FD0000E0001816F0F
:100F3800C80E806F74EC20F0000E0101176F000ED0
:100F4800166F240E0101D46F020EE8EC1DF0B2C03A
:100F580006F1B3C007F1B4C008F106C194F007C1A7
:100F680095F008C196F0000E0001976FC80E0001B9
:100F7800986F420E0001996FBCEC15F094C006F111
:100F880095C007F196C008F1000EE8EC1DF0B2C05C
:100F980009F1B3C00AF1B4C00BF1000E0001976F5C
:100FA800C80E0001986F420E0001996F09C194F0B4
:100FB8000AC195F00BC196F0BCEC15F094C0A3F0F3
:100FC80095C0A4F096C0A5F0000E0001A66FA00E73
:100FD8000001A76F400E0001A86F6BEC16F0A3C0CC
:100FE80009F1A4C00AF1A5C00BF1010EE8EC1DF04F
:100FF800B2C003F1B3C004F1B4C005F1000E0001A2
:10100800976FC80E0001986F420E0001996F03C1D7
:1010180094F004C195F005C196F0BCEC15F094C0AD
:10102800A3F095C0A4F096C0A5F0000E0001A66F2D
:10103800A00E0001A76F400E0001A86F6BEC16F020
:10104800A3C003F1A4C004F1A5C005F10101165124
:1010580001011711D8A450D0000E0101066F000E2F
:101068000101076F000E0101086F000E0101096FF1
:10107800000E01010A6F000E01010B6F000E010145
:10108800036F000E0101046F000E0101056F000ED1
:101098000101116F000E106F000E01010D6F000E9F
:1010A8000C6F000E0101136F000E126F520E01013A
:1010B800D26F000E0001C86F000E0001C96F000E4C
:1010C8000001CA6FC1EC1AF0600E0001806F010EBA
:1010D8000001816FD50E0001826F010E0001836F40
:1010E8007EEC1FF0000E0101006F000E0101016F80
:1010F800000E0101026FD9D2010116050101171175
:10110800D8A411D0829410C18EF011C18FF0000EB6
:101118000001916F050E906F27EC20F08EC012F140
:101128008FC013F1C2D2020E010116190101171165
:10113800D8A41FD0829A0CC18EF00DC18FF0000E7A
:101148000001916F050E906F27EC20F08EC012F110
:101158008FC013F112C194F013C195F0C6EC1FF0C3
:1011680094C0C8F095C0C9F096C0CAF0C1EC1AF096
:101178009CD2030E0101161901011711D8A495D2AA
:10118800000E0001B96F700E0001BA6F420E000127
:10119800BB6F03C1BCF004C1BDF005C1BEF0A0EC3B
:1011A80019F00001D8B0B4D009C198F00AC199F07B
:1011B8000BC19AF05CEC20F098C0ADF099C0AEF08D
:1011C8009AC0AFF006C1B0F007C1B1F008C1B2F0E3
:1011D8006CEC11F0ADC0C8F1AEC0C9F1AFC0CAF136
:1011E800000E0001B96F000E0001BA6F000E000179
:1011F800BB6FC8C1BCF0C9C1BDF0CAC1BEF0A0EC8C
:1012080019F00001D8B041D0000E0101116F000E95
:10121800106F829A000E0001976F200E0001986FE0
:10122800410E0001996FC8C194F0C9C195F0CAC1B7
:1012380096F0BCEC15F094C0B9F095C0BAF096C021
:10124800BBF011EC17F0B9C00CF1BAC00DF10101F7
:101258000DBF08D001010D510AE1190E01010C5D05
:10126800D8B005D0000E01010D6F190E0C6F0CC11E
:1012780094F00DC195F0C6EC1FF094C0C8F095C06D
:10128800C9F096C0CAF0C1EC1AF006C1B9F007C19E
:10129800BAF008C1BBF009C1B0F00AC1B1F00BC186
:1012A800B2F014C194F015C195F0C6EC1FF094C0CB
:1012B80098F095C099F096C09AF05CEC20F098C030
:1012C800ADF099C0AEF09AC0AFF06CEC11F0ADC0C3
:1012D800BCF0AEC0BDF0AFC0BEF0A0EC19F000018C
:1012E800D8B0E3D1000E01010D6F000E0C6F000E97
:1012F8000101116F0A0E106F000E0001C86F000E79
:101308000001C96F000E0001CA6FC1EC1AF0CDD1FF
:1013180003C1B9F004C1BAF005C1BBF0000E000169
:10132800BC6F200E0001BD6F420E0001BE6FA0EC25
:1013380019F00001D8B0D7D006C198F007C199F0CC
:1013480008C19AF05CEC20F098C0ADF099C0AEF0FE
:101358009AC0AFF009C1B0F00AC1B1F00BC1B2F048
:101368006CEC11F0ADC0CBF1AEC0CCF1AFC0CDF19B
:10137800000E0001B96F000E0001BA6F000E0001E7
:10138800BB6FCBC1BCF0CCC1BDF0CDC1BEF0A0ECF1
:1013980019F00001D8B066D0000E0001976F000E5A
:1013A8000001986F400E0001996FCBC194F0CCC139
:1013B80095F0CDC196F0BCEC15F094C0B9F095C08D
:1013C800BAF096C0BBF011EC17F0B9C010F1BAC072
:1013D80011F1010111BF0DD00101115105E1150EE7
:1013E8000101105DD8A005D0000E0101116F140E87
:1013F800106F010111BF08D0010111510AE10A0E55
:101408000101105DD8B005D0000E0101116F0A0E60
:10141800106F000E0001B96F500E0001BA6F420E36
:101428000001BB6F09C1BCF00AC1BDF00BC1BEF021
:10143800A0EC19F00001D8B005D0000E0101116F21
:10144800140E106F000E01010D6F000E0C6F000ED0
:101458000001C86F000E0001C96F000E0001CA6FBD
:10146800C1EC1AF009C1B0F00AC1B1F00BC1B2F079
:1014780014C194F015C195F0C6EC1FF094C0ADF0FE
:1014880095C0AEF096C0AFF06CEC11F0ADC0B9F0FD
:10149800AEC0BAF0AFC0BBF006C1BCF007C1BDF02A
:1014A80008C1BEF0A0EC19F00001D8B0FED0000EC3
:1014B8000101116F000E106F000E01010D6F000E7B
:1014C8000C6F000E0101136F000E126F829A000E4E
:1014D8000001C86F000E0001C96F000E0001CA6F3D
:1014E800C1EC1AF0E2D006C198F007C199F008C122
:1014F8009AF05CEC20F098C0ADF099C0AEF09AC0BC
:10150800AFF009C1B0F00AC1B1F00BC1B2F06CEC98
:1015180011F0ADC0CEF1AEC0CFF1AFC0D0F1000E2A
:101528000001B96F000E0001BA6F000E0001BB6F19
:10153800CEC1BCF0CFC1BDF0D0C1BEF0A0EC19F057
:101548000001D8B056D0CEC1B9F0CFC1BAF0D0C1E1
:10155800BBF011EC17F0B9C010F1BAC011F10101DC
:1015680011BF0DD00101115105E1150E0101105DEA
:10157800D8A005D0000E0101116F140E106F0101E3
:1015880011BF08D0010111510AE10A0E0101105DD5
:10159800D8B005D0000E0101116F0A0E106F000EB1
:1015A8000001B96F500E0001BA6F420E0001BB6F07
:1015B80009C1BCF00AC1BDF00BC1BEF0A0EC19F026
:1015C8000001D8B005D0000E0101116F140E106F84
:1015D800000E01010D6F000E0C6F000E0001C86FA8
:1015E800000E0001C96F000E0001CA6FC1EC1AF0AD
:1015F8005CD009C198F00AC199F00BC19AF05CEC73
:1016080020F098C0ADF099C0AEF09AC0AFF006C116
:10161800B0F007C1B1F008C1B2F06CEC11F0ADC088
:10162800C5F1AEC0C6F1AFC0C7F1000E0101116F20
:10163800000E106F000E0001976F200E0001986FCA
:10164800410E0001996FC5C194F0C6C195F0C7C19C
:1016580096F0BCEC15F094C0B9F095C0BAF096C0FD
:10166800BBF011EC17F0B9C00CF1BAC00DF10101D3
:101678000DBF08D001010D510AE1190E01010C5DE1
:10168800D8B005D0000E01010D6F190E0C6F0CC1FA
:1016980094F00DC195F0C6EC1FF094C0C8F095C049
:1016A800C9F096C0CAF0C1EC1AF018C188F019C187
:1016B80089F0B8EC20F088C0A3F089C0A4F08AC0F3
:1016C800A5F0000E0001A66FE00E0001A76F400E06
:1016D8000001A86F6BEC16F0A3C000F1A4C001F1E3
:1016E800A5C002F1D0EC0DF011D40001A96F0001E2
:1016F800A9AF2AD10001A96D0001A951800A120FD2
:10170800D8A0ACD0000E0001916F030E906F000EB0
:101718000001896F0A0E886F000E0001836F640E46
:10172800826F0001A9510001806F816B80BF810722
:10173800C3EC1BF080C086F081C087F004EC1AF07F
:10174800090E0001862500018E6F000E0001872119
:1017580000018F6F27EC20F0870E00018E25F66EB2
:10176800FE0E00018F21F76E0900F5CF97F00900F2
:10177800F5CF98F00A00F5CF99F0000E0001896FB7
:10178800640E886F0001A9510001866F876B86BFC0
:10179800870704EC1AF0120E0001862500018E6FEF
:1017A800000E0001872100018F6F000E0001916F6C
:1017B800030E906F27EC20F0870E00018E25F66E41
:1017C800FE0E00018F21F76E0900F5CF94F0090095
:1017D800F5CF95F00A00F5CF96F0BCEC15F094C063
:1017E800A6F095C0A7F096C0A8F0A6C094F0A7C030
:1017F80095F0A8C096F0000E0001916F030E906F4F
:10180800000E0001836F0A0E826F0001A9510001CA
:10181800806F816B80BF8107C3EC1BF080C08EF0A6
:1018280081C08FF027EC20F0870E00018E25F66E20
:10183800FE0E00018F21F76E0900F5CF97F0090021
:10184800F5CF98F00A00F5CF99F0BCEC15F094C0EC
:10185800A3F095C0A4F096C0A5F012000001A9510C
:10186800800A750FD8A05DD0000E0001896F0A0E9E
:10187800886F0001A9510001866F876B86BF8707B3
:1018880004EC1AF0090E0001862500018E6F000E87
:101898000001872100018F6F000E0001916F030E78
:1018A800906F27EC20F0870E00018E25F66EFE0E55
:1018B80000018F21F76E0900F5CF94F00900F5CFEC
:1018C80095F00A00F5CF96F0000E0001916F030E17
:1018D800906F000E0001836F0A0E826F0001A951FC
:1018E8000001806F816B80BF8107C3EC1BF080C053
:1018F8008EF081C08FF027EC20F0870E00018E2536
:10190800F66EFE0E00018F21F76E0900F5CF97F0F5
:101918000900F5CF98F00A00F5CF99F0BCEC15F066
:1019280096D70001A951030D870EF324F66EFE0E1B
:10193800F420F76E0900F5CFA3F00900F5CFA4F065
:101948000A00F5CFA5F012000001A951800A120F74
:10195800D8A0ACD0000E0001916F030E906F000E5E
:101968000001896F0A0E886F000E0001836F640EF4
:10197800826F0001A9510001806F816B80BF8107D0
:10198800C3EC1BF080C086F081C087F004EC1AF02D
:10199800090E0001862500018E6F000E00018721C7
:1019A80000018F6F27EC20F0AE0E00018E25F66E39
:1019B800FE0E00018F21F76E0900F5CF97F00900A0
:1019C800F5CF98F00A00F5CF99F0000E0001896F65
:1019D800640E886F0001A9510001866F876B86BF6E
:1019E800870704EC1AF0120E0001862500018E6F9D
:1019F800000E0001872100018F6F000E0001916F1A
:101A0800030E906F27EC20F0AE0E00018E25F66EC7
:101A1800FE0E00018F21F76E0900F5CF94F0090042
:101A2800F5CF95F00A00F5CF96F0BCEC15F094C010
:101A3800A6F095C0A7F096C0A8F0A6C094F0A7C0DD
:101A480095F0A8C096F0000E0001916F030E906FFC
:101A5800000E0001836F0A0E826F0001A951000178
:101A6800806F816B80BF8107C3EC1BF080C08EF054
:101A780081C08FF027EC20F0AE0E00018E25F66EA7
:101A8800FE0E00018F21F76E0900F5CF97F00900CF
:101A9800F5CF98F00A00F5CF99F0BCEC15F094C09A
:101AA800A3F095C0A4F096C0A5F012000001A951BA
:101AB800800A750FD8A05DD0000E0001896F0A0E4C
:101AC800886F0001A9510001866F876B86BF870761
:101AD80004EC1AF0090E0001862500018E6F000E35
:101AE8000001872100018F6F000E0001916F030E26
:101AF800906F27EC20F0AE0E00018E25F66EFE0EDC
:101B080000018F21F76E0900F5CF94F00900F5CF99
:101B180095F00A00F5CF96F0000E0001916F030EC4
:101B2800906F000E0001836F0A0E826F0001A951A9
:101B38000001806F816B80BF8107C3EC1BF080C000
:101B48008EF081C08FF027EC20F0AE0E00018E25BC
:101B5800F66EFE0E00018F21F76E0900F5CF97F0A3
:101B68000900F5CF98F00A00F5CF99F0BCEC15F014
:101B780096D70001A951030DAE0EF324F66EFE0EA2
:101B8800F420F76E0900F5CFA3F00900F5CFA4F013
:101B98000A00F5CFA5F012001C0E0001C86F010E57
:101BA8000001C96F850E0001CA6FFF0E0001CB6FDF
:101BB80006C1CCF007C1CDF008C1CEF00DEC00F0A5
:101BC800010E00018A6F010E0AEC1FF01C0E0001C5
:101BD8008E6F010E00018F6FF4EC20F001010DBF34
:101BE80009D001010D5104E101010C05D8A002D072
:101BF800590E01D04E0E0101D16F010111BF09D05C
:101C08000101115104E101011005D8A002D0590EBB
:101C180001D04E0E0101D36F2D0E0001C86F010EC9
:101C28000001C96F3E0E0001CA6FFF0E0001CB6FA5
:101C380009C1CCF00AC1CDF00BC1CEF0D3C1CFF0B1
:101C48000001D06BD1C1D1F00001D26B0DEC00F0D6
:101C5800020E00018A6F010E0AEC1FF02D0E000122
:101C68008E6F010E00018F6FF4EC20F0520E01010F
:101C7800D219D8B41DD03E0E0001C86F010E000164
:101C8800C96F2B0E0001CA6FFF0E0001CB6F03C195
:101C9800CCF004C1CDF005C1CEF0D2C1CFF0000127
:101CA800D06B12C1D1F013C1D2F00DEC00F01AD0F4
:101CB8003E0E0001C86F010E0001C96F510E0001F0
:101CC800CA6FFF0E0001CB6F03C1CCF004C1CDF089
:101CD80005C1CEF000C1CFF001C1D0F002C1D1F0F2
:101CE8000DEC00F0030E00018A6F010E0AEC1FF0E4
:101CF8003E0E00018E6F010E00018F6FF4EC20F094
:101D0800030E0101161901011711D8B40FD04F0E97
:101D18000001C86F010E0001C96F600E0001CA6F93
:101D2800010E0001CB6F0DEC00F012D04F0E000138
:101D3800C86F010E0001C96FA70E0001CA6FFF0E20
:101D48000001CB6F14C1CCF015C1CDF00DEC00F043
:101D5800040E00018A6F010E0AEC1FF04F0E0001FD
:101D68008E6F010E00018F6FF4EC20F04D0E010113
:101D7800D419D8A412000101165101011711D8B4C1
:101D880012000101160501011711D8A40FD0B10ED8
:101D98000001806F010E0001816FF90E0001826F52
:101DA800FF0E0001836F7EEC1FF02BD0020E0101A5
:101DB800161901011711D8A40FD0B10E0001806FB8
:101DC800010E0001816FF40E0001826FFF0E000109
:101DD800836F7EEC1FF015D0030E01011619010167
:101DE8001711D8A40ED0B10E0001806F010E0001AA
:101DF800816FCD0E0001826FFF0E0001836F7EECB4
:101E08001FF0010111BF16D00101115104E10101B8
:101E18001005D8A00FD0B90E0001806F010E000187
:101E2800816FEF0E0001826FFF0E0001836F7EEC61
:101E38001FF00ED0B90E0001806F010E0001816FF6
:101E4800E90E0001826FFF0E0001836F7EEC1FF028
:101E580001010DBF16D001010D5104E101010C056E
:101E6800D8A00FD0BF0E0001806F010E0001816F56
:101E7800E30E0001826FFF0E0001836F7EEC1FF0FE
:101E88000ED0BF0E0001806F010E0001816FD50ECC
:101E98000001826FFF0E0001836F7EEC1FF0710E50
:101EA8000001C86F010E0001C96FD50E0001CA6F8D
:101EB800FE0E0001CB6F06C1CCF007C1CDF008C102
:101EC800CEF009C1CFF00AC1D0F00BC1D1F003C1E7
:101ED800D2F004C1D3F005C1D4F00DEC00F0710EBE
:101EE8000001816F010E0001826F88EC1EF0710EF7
:101EF8000001806F010E0001816F170E0001826FD3
:101F0800FF0E0001836F7EEC1FF0710E0001C86F99
:101F1800010E0001C96FDC0E0001CA6FFF0E00013F
:101F2800CB6F0DEC00F0710E0001816F010E000106
:101F3800826F88EC1EF0710E0001C86F010E00015F
:101F4800C96FB10E0001CA6F010E0001CB6F0DEC15
:101F580000F0710E0001816F010E0001826F88ECA4
:101F68001EF0710E0001C86F010E0001C96FB80E96
:101F78000001CA6FFF0E0001CB6F0DEC00F0710E6F
:101F88000001816F010E0001826F88EC1EF0710E56
:101F98000001C86F010E0001C96FB90E0001CA6FB8
:101FA800010E0001CB6F0DEC00F0710E0001816F86
:101FB800010E0001826F88EC1EF0710E0001C86FDF
:101FC800010E0001C96FC40E0001CA6FFF0E0001A7
:101FD800CB6F0DEC00F0710E0001816F010E000156
:101FE800826F88EC1EF0710E0001C86F010E0001AF
:101FF800C96FBF0E0001CA6F010E0001CB6F0DEC57
:1020080000F0710E0001816F010E0001826F88ECF3
:102018001EF0F80E0001816FFE0E0001826F88EC41
:102028001EF012000001AC6F6D0E0001AC65BAD055
:10203800000E0001916F030E906F000E0001896F72
:102048000A0E886F000E0001836F640E826FACC0A9
:1020580080F00001816BC3EC1BF080C086F081C06A
:1020680087F004EC1AF0090E0001862500018E6F36
:10207800000E0001872100018F6F27EC20F0870EEA
:1020880000018E25F66EFE0E00018F21F76E090005
:10209800F5CF97F00900F5CF98F00A00F5CF99F041
:1020A800000E0001896F640E886FACC086F00001D5
:1020B800876B04EC1AF0120E0001862500018E6F62
:1020C800000E0001872100018F6F000E0001916F43
:1020D800030E906F27EC20F0870E00018E25F66E18
:1020E800FE0E00018F21F76E0900F5CF94F009006C
:1020F800F5CF95F00A00F5CF96F0BCEC15F094C03A
:10210800A9F095C0AAF096C0ABF0000E0001916F3F
:10211800030E906F000E0001836F0A0E826FACC031
:1021280080F00001816BC3EC1BF080C08EF081C091
:102138008FF027EC20F0870E00018E25F66EFE0E3C
:1021480000018F21F76E0900F5CF97F00900F5CF50
:1021580098F00A00F5CF99F0A9C094F0AAC095F0BC
:10216800ABC096F0BCEC15F094C0A6F095C0A7F0F3
:1021780096C0A8F0A6C094F0A7C095F0A8C096F0A5
:10218800000E0001976F000E0001986F3F0E0001CE
:10219800996FBCEC15F094C0A3F095C0A4F096C05C
:1021A800A5F012000A0E0001AC656ED0000E000109
:1021B800916F030E906F000E0001836F0A0E826FFD
:1021C800ACC080F00001816BC3EC1BF080C08EF0C6
:1021D80081C08FF027EC20F0870E00018E25F66E67
:1021E800FE0E00018F21F76E0900F5CF97F0090068
:1021F800F5CF98F00A00F5CF99F0000E0001896F2D
:102208000A0E886FACC086F00001876B04EC1AF0E8
:10221800090E0001862500018E6F000E000187213E
:1022280000018F6F000E0001916F030E906F27EC75
:1022380020F0870E00018E25F66EFE0E00018F211C
:10224800F76E0900F5CF94F00900F5CF95F00A0074
:10225800F5CF96F0BCEC15F094C0A9F095C0AAF0A3
:1022680096C0ABF0A9C094F0AAC095F0ABC096F0A8
:10227800000E0001976F000E0001986F3F0E0001DD
:10228800996FBCEC15F087D70001AC51030D870E90
:10229800F324F66EFE0EF420F76E0900F5CF94F0E5
:1022A8000900F5CF95F00A00F5CF96F0000E000171
:1022B800976F000E0001986F3F0E0001996FBCECFC
:1022C80015F094C0A3F095C0A4F096C0A5F0120034
:1022D800AFC0B3F00001B46BB56B0001AE350001BF
:1022E800B33701E3B4810001B3510001B86FB2C044
:1022F800B3F00001B46BB56B0001B1350001B33721
:1023080001E3B4810001B3510001B76F0001B85176
:102318000001D8B411D00001B7510001B85DD8B0A0
:1023280012D00001B85100080001B7250001B36FB1
:10233800180E0001B36507D0B0C0ADF0B1C0AEF063
:10234800B2C0AFF012000001B7510001D8B411D0EB
:102358000001B8510001B75DD8B012D00001B751E3
:1023680000080001B8250001B36F180E0001B3651D
:1023780007D0ADC0ADF0AEC0AEF0AFC0AFF0120048
:10238800060E0001B66F0001AFAF02D00001B68F94
:102398000001B2AF02D00001B68D0001AE8FFF0E72
:1023A8000001AD17FF0E0001AE17000E0001AF17B8
:1023B8000001B18FFF0E0001B017FF0E0001B11729
:1023C800000E0001B2170001B7510001B85DD8B086
:1023D80025D00001D890B037B137B2370001B70720
:1023E8000001B8510001B719D8B411D00001B607DF
:1023F800B6C0B3F0070E0001B317D8B408D0E9D7B8
:102408000001D890AF33AE33AD330001B82B0001D3
:10241800B7510001B819D8B42BD0F2D70001B85180
:102428000001B75DD8B024D00001D890AD37AE37E1
:10243800AF370001B8070001B8510001B719D8B487
:1024480011D00001B607B6C0B3F0070E0001B317EC
:10245800D8B408D0E9D70001D890B233B133B0333B
:102468000001B72B0001B7510001B819D8A4F3D760
:102478000001B6AF12D0FF0E0001AD1BFF0E000128
:10248800AE1BFF0E0001AF1B010E0001AD27000EB1
:102498000001AE23000E0001AF230001B6AD12D03B
:1024A800FF0E0001B01BFF0E0001B11BFF0E000163
:1024B800B21B010E0001B027000E0001B123000E6F
:1024C8000001B223000E0001B66F0001AD510001FA
:1024D800B0270001AE510001B1230001AF51000146
:1024E800B2230001B2AF15D0FF0E0001B01BFF0EE2
:1024F8000001B11BFF0E0001B21B010E0001B02745
:10250800000E0001B123000E0001B223010E0001EC
:10251800B66FB0C080F0B1C081F0B2C082F0B8C070
:1025280083F0B6C084F0B3EC17F080C0ADF081C082
:10253800AEF082C0AFF012000BC00FF0106A116A43
:102548000A340F3601E310800F50146E0EC00FF0DE
:10255800106A116A0D340F3601E310800F50136EA4
:102568001450D8B40BD01350145CD8B00ED01450FB
:10257800000813240F6E180E0F6407D00CC009F062
:102588000DC00AF00EC00BF012001350D8B40BD0D7
:102598001450135CD8B00ED01350000814240F6EDA
:1025A800180E0F6407D009C009F00AC00AF00BC062
:1025B8000BF01200060E126E0BBE128E0EBE128C9F
:1025C8000A8EFF0E0916FF0E0A16000E0B160D8E48
:1025D800FF0E0C16FF0E0D16000E0E161350145C8F
:1025E800D8B01BD0D8900C360D360E3613061450C2
:1025F8001318D8B40DD0120612C00FF0070E0F161C
:10260800D8B406D0EFD7D8900B320A320932142A40
:1026180013501418D8B41FD0F6D71450135CD8B080
:102628001AD0D89009360A360B36140614501318E7
:10263800D8B40DD0120612C00FF0070E0F16D8B47A
:1026480006D0EFD7D8900E320D320C32132A135021
:102658001418D8A4F7D712AE0CD0FF0E091AFF0E23
:102668000A1AFF0E0B1A010E0926000E0A22000E86
:102678000B2212AC0CD0FF0E0C1AFF0E0D1AFF0E17
:102688000E1A010E0C26000E0D22000E0E22000E50
:10269800126E09500C260A500D220B500E220EAE57
:1026A8000ED0FF0E0C1AFF0E0D1AFF0E0E1A010E99
:1026B8000C26000E0D22000E0E22010E126E0CC00A
:1026C80001F00DC002F00EC003F014C004F012C0F7
:1026D80005F019EC1BF001C009F002C00AF003C0B4
:1026E8000BF0120082C086F00001876B886B000136
:1026F80081350001863701E3878100018651000199
:102708008E6F00018E51D8A40AD0000E0001806F90
:10271800000E816F000E826F000E836F120085C05D
:1027280086F00001876B886B0001843500018637CD
:1027380001E387810001865100018D6F00018D51F1
:10274800D8A40AD0000E0001806F000E816F000E21
:10275800826F000E836F12000001818FFF0E00014F
:102768008017FF0E00018117000E0001821700017B
:10277800848FFF0E00018317FF0E00018417000EDF
:1027880000018517000E0001896F000E8A6F000E88
:102798008B6F000E8C6F7F0E00018E5F00018D51D4
:1027A800980F00018E5F180E00018D6F0001D89000
:1027B80089378A378B378C37000183510001805D58
:1027C800000184510001815900018551000182599D
:1027D800D8A00ED0000183510001805F0001845110
:1027E8000001815B000185510001825B0001898144
:1027F8000001D89080378137823700018D2FD6D7D6
:1028080000018EAF1AD000018E51800A970FD8B000
:102818000AD0000E0001806F000E816F000E826FDB
:10282800000E836F12000001D8908C338B338A33EB
:10283800893300018E3FF7D71BD0170E00018E6534
:1028480012D0000E0001806F000E816F000E826FA3
:10285800000E836F12000001D89089378A378B37B2
:102868008C3700018E0700018E510001D8A4F3D7E0
:1028780089C080F08AC081F08BC082F08CC083F060
:10288800120000018235833500018B6F00018B51E6
:10289800D8A40AD0000E0001806F000E816F000ED0
:1028A800826F000E836F12000001853586350001A6
:1028B8008A6F00018A51D8A40AD0000E0001806FE7
:1028C800000E816F000E826F000E836F12000001F0
:1028D800828FFF0E00018017FF0E8117FF0E8217EF
:1028E800000E83170001858FFF0E00018317FF0E6E
:1028F8008417FF0E8517000E8617000E0001866FDD
:10290800000E876F000E886F000E896F7F0E000122
:102918008B5F00018A51A00F00018B5F200E000120
:102928008A6F0001D8908637873788378937000142
:1029380083510001805D000184510001815900012B
:102948008551000182590001865100018359D8A0A0
:1029580012D0000183510001805F00018451000101
:10296800815B000185510001825B000186510001F5
:10297800835B000186810001D890803781378237D8
:10298800833700018A2FCDD700018BAF1AD0000101
:102998008B51800A9F0FD8B00AD0000E0001806FBB
:1029A800000E816F000E826F000E836F120000010F
:1029B800D890893388338733863300018B3FF7D724
:1029C8001BD01F0E00018B6512D0000E0001806F16
:1029D800000E816F000E826F000E836F12000001DF
:1029E800D890863787378837893700018B070001E9
:1029F8008B510001D8A4F3D786C080F087C081F03E
:102A080088C082F089C083F01200F2929BD0000E39
:102A18000101176F010E166F600E016E010E026E36
:102A28003F0E036E000E046EA3EC1FF0480E01016A
:102A3800D26F000E0101116F000E106F000E010120
:102A48000D6F000E0C6F000E0101136F000E126F58
:102A58001200000E0101176F020E166F600E016E54
:102A6800010E026E500E036E000E046EA3EC1FF0F2
:102A7800430E0101D26F000E0101116F000E106F9D
:102A8800000E01010D6F000E0C6F000E0101136F97
:102A9800000E126F1200000E0101176F030E166F61
:102AA800829A000E276E000E286E000E296E61ECC9
:102AB8001CF065EC21F0600E016E010E026E610ED5
:102AC800036E000E046EA3EC1FF0520E0101D26FCC
:102AD800000E0101116F000E106F000E01010D6F45
:102AE800000E0C6F000E0101136F000E126F120022
:102AF800000E0101176F010E166F600E016E010EB8
:102B0800026E3F0E036E000E046EA3EC1FF0000E63
:102B1800276E000E286E000E296E61EC1CF0480E20
:102B28000101D26F000E0101116F000E106F000E2F
:102B380001010D6F000E0C6F000E0101136F000EE6
:102B4800126F120016C12FF017C130F03050000A72
:102B5800D8A412002F50000AD8B459D7010AD8B403
:102B680078D7030AD8B497D7010AD8A41200C0D7D7
:102B780096C09AF000019B6B9C6B00019535000193
:102B88009A3701E39B8100019A5100019D6F000172
:102B98009D51D8A40AD0000E0001946F000E0001C8
:102BA800956F000E0001966F120099C09AF000010F
:102BB8009B6B9C6B0001983500019A3701E39B8160
:102BC80000019A510001A26F0001A251D8A40AD0B5
:102BD800000E0001946F000E0001956F000E0001B9
:102BE800966F12000001A2517B0F00019D2796C02D
:102BF800A2F0000199510001A21B800E0001A2174A
:102C08000001958F0001988FFF0E00019717FF0EA6
:102C180000019817000E00019917000E00019E6F21
:102C2800000E00019F6F000E0001A06F070E00014B
:102C3800A16F000194A10CD00001975100019E27BB
:102C48000001985100019F23000199510001A02320
:102C58000001D8909633953394330001D890973774
:102C6800983799370001A12FE4D7090E0001A16F09
:102C7800000194A10CD00001975100019E2700018A
:102C8800985100019F23000199510001A0230001E0
:102C9800D8909633953394330001D890A0339F335E
:102CA8009E330001A12FE4D79EC080F09FC081F021
:102CB800A0C082F09DC083F0A2C084F0B3EC17F0EE
:102CC80080C094F081C095F082C096F01200A5C033
:102CD800A9F00001AA6BAB6B0001A4350001A9376C
:102CE80001E3AA810001A9510001B06F0001B051B0
:102CF800D8A40AD0000E0001A36F000E0001A46F33
:102D0800000E0001A56F1200A8C0A9F00001AA6B6F
:102D1800AB6B0001A7350001A93701E3AA810001C7
:102D2800A9510001B16F0001B151D8A40AD0000E19
:102D38000001A36F000E0001A46F000E0001A56F33
:102D48001200000E0001AD6F000E0001AE6F000E04
:102D58000001AF6F0001B151890F0001B05FA5C03C
:102D6800B1F00001A8510001B11B800E0001B1179C
:102D78000001A48FFF0E0001A317FF0E0001A41786
:102D8800000E0001A5170001A78FFF0E0001A6176E
:102D9800FF0E0001A717000E0001A817180E00016A
:102DA800AC6F0001D890AD37AE37AF370001A651F0
:102DB8000001A35D0001A7510001A4590001A85119
:102DC8000001A559D8A00ED00001A6510001A35FAB
:102DD8000001A7510001A45B0001A8510001A55BF7
:102DE8000001AD810001D890A337A437A5370001B1
:102DF800AC2FD7D7ADC080F0AEC081F0AFC082F0A5
:102E0800B0C083F0B1C084F0B3EC17F080C0A3F079
:102E180081C0A4F082C0A5F01200BBC0BDF00001C3
:102E2800BE6BBF6B0001BA350001BD3701E3BE813F
:102E38000001BD510001C76F0001C751D8A40AD0D5
:102E4800000E0001B96F000EBA6F000EBB6F000EC6
:102E5800BC6F1200170E0001BD6FB9C0BEF0BAC03A
:102E6800BFF0BBC0C0F00001BD290001C16F05D093
:102E78000001D890C033BF33BE330001C12FF8D74B
:102E88000001BE510001C26F0001BA8FFF0E0001A0
:102E9800B917FF0E0001BA17000E0001BB17000199
:102EA800B9510001C36F0001BA510001C46F00019C
:102EB800BB510001C56F0001C66B8E0E0001C75FD4
:102EC8000001C7AF1AD00001C751800A8F0FD8B0D0
:102ED8000AD0000E0001B96F000EBA6F000EBB6F6A
:102EE800000EBC6F12000001D890C633C533C4333E
:102EF800C3330001C73FF7D71BD0170E0001C765C2
:102F080012D0000E0001B96F000EBA6F000EBB6F31
:102F1800000EBC6F12000001D890C337C437C53704
:102F2800C6370001C7070001C7510001D8A4F3D76D
:102F38000001C2510001D8B409D00001C61FC51F45
:102F4800C41FC36D000EC423C523C623C3C0B9F074
:102F5800C4C0BAF0C5C0BBF0C6C0BCF012000001C6
:102F680083510001D8B408D00001805100018111BB
:102F780000018211D8A411D0000E0001806F000E4C
:102F88000001816F000E0001826F12000001832B87
:102F98000001D890823381338033000E0001801500
:102FA8000001856F000E000181150001866FFE0E7D
:102FB800000182150001876F00018551000186110B
:102FC80000018711D8B411D0E1D70001832B010E7D
:102FD80000018027000E00018123000E00018223DA
:102FE8000001D890823381338033000E00018015B0
:102FF8000001856F000E000181150001866FFF0E2C
:10300800000182150001876F0001855100018611BA
:1030180000018711D8B408D0D8D700018307000170
:10302800D890803781378237000181BF04D0020EE3
:1030380000018361F2D7000183B102D00001819FB2
:103048000001D890833300018351000182130001ED
:1030580084510001D8B402D00001828F80C080F072
:1030680081C081F082C082F0120017C019F01A6A7C
:103078001B6A1634193601E31A801950236E23503F
:10308800D8A409D0000E156E000E166E000E176E2D
:10309800000E186E1200170E196E15C01AF016C021
:1030A8001BF017C01CF019281D6E04D0D8901C32D4
:1030B8001B321A321D2EFAD71A501E6E168EFF0EAC
:1030C8001516FF0E1616000E171615501F6E165001
:1030D800206E1750216E226A8E0E235E23AE16D004
:1030E8002350800A8F0FD8B009D0000E156E000E3D
:1030F800166E000E176E000E186E1200D89022324F
:10310800213220321F32233EF9D715D0170E2364FF
:103118000FD0000E156E000E166E000E176E000E04
:10312800186E1200D8901F36203621362236230614
:103138002350D8A4F7D71E50D8B408D0221E211E79
:10314800201E1F6C000E2022212222221FC015F0F3
:1031580020C016F021C017F022C018F012000BC0D2
:103168000FF0106A116A0A340F3601E310800F500D
:10317800126E1250D8A407D0000E096E000E0A6E07
:10318800000E0B6E12000EC00FF0106A116A0D349B
:103198000F3601E310800F50176E1750D8A407D0D0
:1031A800000E096E000E0A6E000E0B6E120017500C
:1031B8007B0F12260BC017F00E50171A800E171629
:1031C8000A8E0D8EFF0E0C16FF0E0D16000E0E1633
:1031D800000E136E000E146E000E156E070E166E9E
:1031E80009A006D00C5013260D5014220E5015229B
:1031F800D8900B320A320932D8900C360D360E367A
:10320800162EEED7090E166E09A006D00C501326FE
:103218000D5014220E501522D8900B320A32093262
:10322800D890153214321332162EEED713C001F08F
:1032380014C002F015C003F012C004F017C005F066
:1032480019EC1BF001C009F002C00AF003C00BF032
:1032580012001AC01EF01F6A206A19341E3601E3D4
:103268001F801E50256E2550D8A407D0000E186E5A
:10327800000E196E000E1A6E12001DC01EF01F6A95
:10328800206A1C341E3601E31F801E50266E26500D
:10329800D8A407D0000E186E000E196E000E1A6E14
:1032A8001200000E226E000E236E000E246E2650B1
:1032B800890F255E1AC026F01D50261A800E261684
:1032C800198EFF0E1816FF0E1916000E1A161C8EF0
:1032D800FF0E1B16FF0E1C16000E1D16180E216E73
:1032E800D8902236233624361B50185C1C501958A7
:1032F8001D501A58D8A007D01B50185E1C50195AD8
:103308001D501A5A2280D890183619361A36212E8E
:10331800E7D722C001F023C002F024C003F025C083
:1033280004F026C005F019EC1BF001C018F002C02B
:1033380019F003C01AF012000001BBAF1DD0B9C0CC
:10334800BFF0BAC0C0F0BBC0C1F00001BF1FC01FB2
:10335800C11FBF2B000EC023C123000E0001BF25D3
:103368000001B96F000E0001C0210001BA6F800E84
:103378000001C1210001BB6F0001BEAF1DD0BCC060
:10338800BFF0BDC0C0F0BEC0C1F00001BF1FC01F6C
:10339800C11FBF2B000EC023C123000E0001BF2593
:1033A8000001BC6F000E0001C0210001BD6F800E3E
:1033B8000001C1210001BE6F000E0001B91B000E03
:1033C8000001BA1B800E0001BB1B000E0001BC1BD4
:1033D800000E0001BD1B800E0001BE1B0001BC5188
:1033E8000001B95D0001BD510001BA590001BE518B
:1033F8000001BB59D8B002D0D8901200D880120072
:10340800000E00018B6F000189AF08D00001886DA4
:10341800891FD8B0892B010E00018B6F000187AF7F
:1034280008D00001866D871FD8B0872B010E0001D8
:103438008B1B000E00018D6F000E8C6F00018851F0
:1034480000018911D8B42CD0010E00018A6F06D072
:103458000001D8908837893700018A2B000189AF8D
:10346800F7D70001D8908C378D37000188510001BB
:10347800865D0001895100018759D8A00AD0000152
:1034880088510001865F000189510001875B0001B6
:103498008C810001D8908933883300018A2FE1D7C5
:1034A80000018B510001D8B405D000018C6D8D1F2F
:1034B800D8B08D2B8CC086F08DC087F01200000E1E
:1034C8000001886F000E896F000E8A6F000E8B6FE7
:1034D8000001845100018511000186110001871146
:1034E800D8B442D0010E00018C6F08D00001D890EA
:1034F800843785378637873700018C2B000187AFE3
:10350800F5D70001D890883789378A378B3700017B
:1035180084510001805D000185510001815900013D
:103528008651000182590001875100018359D8A0B2
:1035380012D0000184510001805F00018551000113
:10354800815B000186510001825B00018751000107
:10355800835B000188810001D890873386338533E7
:10356800843300018C2FCDD788C080F089C081F0CA
:103578008AC082F08BC083F01200C00E0001976FE2
:103588007F0E0001986F440E0001996FC8C094F037
:10359800C9C095F0CAC096F0BCEC15F094C0A3F071
:1035A80095C0A4F096C0A5F0000E0001A66FC80E45
:1035B8000001A76F420E0001A86F6BEC16F0A3C0C4
:1035C800CBF0A4C0CCF0A5C0CDF0000E0001B06FC8
:1035D800000E0001B16F3F0E0001B26FCBC0ADF01D
:1035E800CCC0AEF0CDC0AFF06CEC11F0ADC0B9F00E
:1035F800AEC0BAF0AFC0BBF011EC17F0B9C0CEF056
:10360800BAC0CFF00001CFBF09D0040E0001CF5DD2
:10361800D8A004D0030E0001CF6FCE69CEC080F0D1
:10362800CFC081F00AEC20F012000450D8B405D0C5
:10363800015002100310D8A40CD0000E016E000E29
:10364800026E000E036E1200042AD8900332023272
:103658000132000E0114066E000E0214076EFE0EF3
:103668000314086E065007100810D8B40CD0ECD715
:10367800042A010E0126000E0222000E0322D89011
:10368800033202320132000E0114066E000E0214DB
:10369800076EFF0E0314086E065007100810D8B402
:1036A80006D0E6D70406D89001360236033602BEA5
:1036B80003D0020E0460F6D704A0029ED89004320C
:1036C800045003120550D8A4038E01C001F002C0B3
:1036D80002F003C003F012000600E9CF33F0EACF8E
:1036E80034F0E1CF35F0E2CF36F0D9CF37F0DACF8A
:1036F80038F0F3CF39F0F4CF3AF0F6CF3BF0F7CF0C
:103708003CF0F8CF3DF0F5CF3EF0F2A203D009EC43
:1037180015F017D0F0A203D0ADEC1CF012D0F0A039
:1037280003D0F0EC1CF00DD0A1A203D021EC1EF0C8
:1037380008D0F2A403D019EC21F003D09EBA4CECC7
:1037480021F03EC0F5FF3DC0F8FF3CC0F7FF3BC08D
:10375800F6FF3AC0F4FF39C0F3FF38C0DAFF37C0CC
:10376800D9FF36C0E2FF35C0E1FF34C0EAFF33C0FD
:10377800E9FF32C0FBFF31C0FAFF72921100000E60
:103788000001856F000181AF08D00001806D811FA5
:10379800D8B0812B010E0001856F000183AF05D0E1
:1037A8000001826D831FD8B0832B00018251000174
:1037B8008311D8B426D0010E0001846F06D0000111
:1037C800D890823783370001842B000183AFF7D765
:1037D800000182510001805D00018351000181597F
:1037E800D8A008D0000182510001805F00018351F8
:1037F8000001815B0001D890833382330001842F5C
:10380800E7D7000185510001D8B405D00001806DCB
:10381800811FD8B0812B80C080F081C081F0120058
:1038280000019151000192110001931100019411BE
:10383800D8B43AD0010E0001956F08D00001D89095
:1038480091379237933794370001952B000194AF45
:10385800F5D70001915100018D5D000192510001E1
:103868008E590001935100018F59000194510001B4
:103878009059D8A010D00001915100018D5F00012E
:10388800925100018E5B0001935100018F5B000192
:1038980094510001905B0001D89094339333923394
:1038A80091330001952FD5D78DC08DF08EC08EF045
:1038B8008FC08FF090C090F01200C00E0C6E7F0E7B
:1038C8000D6E440E0E6E27C009F028C00AF029C0FC
:1038D8000BF0B3EC18F009C018F00AC019F00BC0CF
:1038E8001AF0000E1B6EC80E1C6E420E1D6E2DECDB
:1038F80019F018C02AF019C02BF01AC02CF0000ECD
:103908000C6E000E0D6E3F0E0E6E2AC009F02BC015
:103918000AF02CC00BF0A0EC12F009C015F00AC098
:1039280016F00BC017F039EC18F015C02DF016C0C2
:103938002EF02EBE07D0040E2E5CD8A003D0030EA6
:103948002E6E2D682DC001F02EC002F08CEC20F0F8
:103958001200F0920101160501011711D8A40FD029
:10396800010111BF08D00101115135E1140E010107
:10397800105DD8B012000101104B112B1200020E7D
:103988000101161901011711D8A40FD001010DBFAB
:1039980008D001010D511FE1140E01010C5DD8B0D2
:1039A800120001010C4B0D2B1200030E0101161918
:1039B80001011711D8A41200010115BF08D0010197
:1039C800155109E1040E0101145DD8B0120001017E
:1039D800144B152B12001200F0900101160501017D
:1039E8001711D8A40FD0010111BF12000101115104
:1039F80004E101011005D8A0120001011007D8A0A8
:103A080011071200020E0101161901011711D8A49D
:103A18000FD001010DBF120001010D5104E1010198
:103A28000C05D8A0120001010C07D8A00D07120040
:103A3800030E0101161901011711D8A41200010182
:103A480015BF12000101155104E101011405D8A0A8
:103A5800120001011407D8A0150712008E0E0001EC
:103A6800906F08D00001D8908B338A33893388331C
:103A78000001902B000E0001881500018C6F000ECC
:103A88000001891500018D6F000E00018A150001E3
:103A98008E6FFF0E00018B1500018F6F00018C5196
:103AA80000018D1100018E1100018F11D8A4DAD701
:103AB80088C080F089C081F08AC082F090C083F00D
:103AC800000E0001846FB3EC17F080C088F081C04D
:103AD80089F082C08AF0120001EE00F0710EEE6AE1
:103AE800E806FDE16E0EF66E420EF76E000EF86EF9
:103AF80001EED1F010EE15F00900F5CFEEFFE5501C
:103B0800E150FAE1D40EF66E420EF76E000EF86E32
:103B180000EEF8F010EE04F00900F5CFEEFFE550E6
:103B2800E150FAE1840EF66E400EF76E000EF86E64
:103B380000EE3FF010EE33F00900F5CFEEFFE55050
:103B4800E150FAE172907292000EF86E0001C3EF34
:103B580006F084948492000E0001816F190E806F24
:103B680074EC20F0010E00018A6F030E00018A65D3
:103B780001D00DD0030ECDEC20F0000E0001816FB6
:103B8800060E806F74EC20F000018A2BEED7020E2F
:103B9800CDEC20F0000E00018A6F030E00018A654B
:103BA80001D0120000018A51010DF80EF324D96EDC
:103BB800000EF420DA6EDF500001886F000EDFEC93
:103BC8001EF000018A2BE9D70001B86F0001B85137
:103BD80032EC1FF080C0B9F081C0BAF0B9C08EF0E5
:103BE800BAC08FF0000E0001916F050E906F27ECA0
:103BF80020F08EC094F08FC095F0C6EC1FF094C0F2
:103C0800A3F095C0A4F096C0A5F0C00E0001A66F61
:103C18007F0E0001A76F440E0001A86F6BEC16F031
:103C2800A3C0B5F0A4C0B6F0A5C0B7F0B5C0B2F057
:103C3800B6C0B3F0B7C0B4F0120065EC21F0A192A1
:103C480001010FBF08D001010F5127E1140E010136
:103C58000E5DD8B022D00101160501011711D8B4A4
:103C680007D0030E0101161901011711D8A412007B
:103C78000101105101010E5D01010F51800A016E11
:103C880001011151800A0158D8B002D0828A01D0AE
:103C9800829A01010E4B0F2B1200000E01010F6FCB
:103CA800000E0E6F120000018D6F22D0010E000170
:103CB800886F000EDFEC1EF0000E0001816F020E0F
:103CC800806F74EC20F01200020E00018A6F010E62
:103CD8000AEC1FF01200100E0001886F000EDFECD6
:103CE8001EF012008DC088F0010EDFEC1EF01200ED
:103CF80000018D51080AD8B4EED7020AD8B4E4D727
:103D0800060AD8B4D3D7EED716D081C0F6FF82C042
:103D1800F7FF000EF86E0F0EF76403D00800F55099
:103D280005D0F6CFE1FFF7CFE2FFE75056EC21F0E0
:103D38000001814B822B81C0F6FF82C0F7FF000E85
:103D4800F86E0F0EF76403D00800F55005D0F6CFD3
:103D5800E1FFF7CFE2FFE7500009D8B41200D5D74A
:103D6800000ED56EF294D580D582D5940B0ED76E01
:103D7800DC0ED66ECD82CD9ACD98000ECF6E000E99
:103D8800CE6EF28EF28ACD80D58E000EB16EB18ED7
:103D9800B150CF0B2009B16EEC0EB36E780EB26E37
:103DA800000E9D6E9D8A9E9A9E98000EA06EA0821F
:103DB800A192B18012000001896F000189B102D07F
:103DC800849401D08484010EE8EC1FF0010EE8EC25
:103DD8001FF08492000188390F0BCDEC20F0000110
:103DE80088510F0BCDEC20F0000189510001D8B4A7
:103DF80005D0320E0400E82EFDD71200000E000197
:103E0800816F020E806F74EC20F0120000018B6F3E
:103E18000AD0800E05D0C00E03D0900E01D0D00E6F
:103E280000018C6F0ED000018A51010AD8B4F1D775
:103E3800030AD8B4F0D7010AD8B4EFD7070AD8B420
:103E4800EED700018B0500018C2700018C518009F9
:103E58000001886F000EDFEC1EF012000001846F75
:103E680084C082F0000182478247C2500001821953
:103E7800C30B8219C26EC282C2B2FED7C350C4CF6E
:103E880082F00001836B82C083F00001826B000125
:103E980082110001856F000183510001866F85C082
:103EA80080F086C081F012000001BC510001BD11F4
:103EB8000001BE11D8B409D0000E0001BC1B000ED1
:103EC8000001BD1B800E0001BE1BB9C0ADF0BAC019
:103ED800AEF0BBC0AFF0BCC0B0F0BDC0B1F0BEC06A
:103EE800B2F06CEC11F0ADC0B9F0AEC0BAF0AFC032
:103EF800BBF0120080C084F081C085F006D00001BC
:103F0800844B852B0001824B832B82C0F6FF83C034
:103F1800F7FF000EF86E84C0D9FF85C0DAFF0F0ED8
:103F2800F76403D00800F55005D0F6CFE1FFF7CFCE
:103F3800E2FFE750DF6EDF50D8B41200E0D701C0CF
:103F480005F002C006F004D0054A062A034A042AEE
:103F580003C0F6FF04C0F7FF000EF86E05C0D9FFD6
:103F680006C0DAFF0F0EF76403D00800F55005D03D
:103F7800F6CFE1FFF7CFE2FFE750DF6EDF50D8B4AE
:103F88001200E2D7000E0001976F000195AF08D02C
:103F98000001946D951FD8B0952B010E0001976F05
:103FA80094C080F095C081F00001826B8E0E0001F4
:103FB800836F97C084F0B3EC17F080C094F081C091
:103FC80095F082C096F012000001836F000E000188
:103FD800856F000E846F04D004000001844B852B8C
:103FE800000183510001806F816B00018451000141
:103FF800805D00018151800A0001826F00018551B6
:10400800800A00018259D8A01200E6D780C082F049
:1040180081C083F00001D890833382330001D890A7
:104028008333823300018251BE6E80C082F0030E5A
:10403800000182170001823BBD5000018219CF0B9D
:104048008219BD6E120000018E5100019003F3CF5A
:1040580092F0F4CF93F000018E5100019103F350D8
:104068000001932700018F5100019003F3500001D4
:10407800932792C08EF093C08FF012004D443A48B7
:10408800656174202020202020202020004D443A03
:10409800436F6F6C202020202020202020004D44DA
:0F40A8003A4175746F2048432048533A20200056
:1040B800000198510001991100019A11D8B409D052
:1040C800000E0001981B000E0001991B800E0001D4
:1040D8009A1B98C098F099C099F09AC09AF012006B
:1040E800000E0001836F000E826F07D0FA0E0400E5
:1040F800E82EFDD70001824B832B0001825100017D
:10410800805D0001835100018159D8A01200EED7CB
:1041180001C003F002C004F0D89004320332D890F2
:10412800043203320350BE6E01C003F0030E0316BF
:10413800033ABD500318CF0B0318BD6E12000001DF
:10414800826F000E0001816F3A0E0001826107D074
:104158002F0E0001826503D0010E0001816F81C01E
:1041680080F000018031120088C080F089C081F0A1
:104178000001826B8E0E0001836F000E0001846FB8
:10418800B3EC17F080C088F081C089F082C08AF053
:1041980012000001876F87C086F00001863B8350BC
:1041A800000186190F0B8619836E010EE8EC1FF0CB
:1041B8008482040000F084921200D09E000EF26EF9
:1041C800000EF16E000EF06EF288F18CF086F18A26
:1041D800F088F188F28EF28CF292F090F092120050
:1041E8000AD08EC0D9FF8FC0DAFFDF5057EC1EF01F
:1041F80000018E4B8F2B8EC0D9FF8FC0DAFFDF50A6
:10420800D8B41200EED7B896000EAC6E190EAF6E89
:10421800000EB06EAC84AC8A000EAB6EAB88AB8E71
:10422800AECF80F0AECF80F01200F294CF50016E86
:10423800CE500101186F01C019F10B0ED76EDC0EBC
:10424800D66E000ECF6E000ECE6E1200000EC26E3D
:104258000C0EC16E92689368800E946E000E956E77
:10426800000E966E12004E4E4E244D443A4F46466E
:0B4278002020202020202020202000FB
:10428400CB68000ECA6E030ECA120C0EBD6ECA8431
:1042940094941200ABB402D0ABA203D0AB98AB8819
:1042A4001200AECFD4F112000001806F01D00400DF
:1042B400ACA2FDD780C0ADFF1200000EC26EC2805A
:1042C400890EC06E1200EC0EB36E780EB26E120040
:0442D400280C0106AB
:10FE5E0000010000000A00000064000000E803003A
:10FE6E000010270000A086010040420F00809698E7
:10FE7E000000E1F50500CA9A3B00803FCDCC3DD78E
:10FE8E00233C12833AB7D138C62737388635C0D6C9
:10FE9E0033CC2B32708930E7DB2EE53C1E42A20DAF
:10FEAE0000803F00204100C842007A44401C46506A
:10FEBE00C34724744997184BBCBE4C6B6E4E03154A
:10FECE005079AD60F3497152543A25342E31664360
:10FEDE00202C2053503A25342E316643202C204FAF
:10FEEE00543A25342E31660D0A002D2D2D2D2D2D33
:10FEFE002D2D2D2D2D2D2D2D2D2D2D2D2D2D2D2D24
:10FF0E002D2D2D2D2D2D0D0D0A004F543A20203064
:10FF1E002E304320523A20302E302525004F543AB1
:10FF2E0025352E3166432025633A25336425250079
:10FF3E0053503A25352E316643202020202563204C
:10FF4E002563004F543A25352E31664320523A250B
:10FF5E00342E3166004D443A4F4646202020202054
:10FF6E0020202020200052543A2020302E304320D2
:10FF7E002020204820430052543A25352E31664326
:10FF8E00202020204820430053503A2020302E308D
:10FF9E0043202020204E204E004D443A4175746F70
:10FFAE002048432048533A256400202C20486561A0
:10FFBE007465723A2000436F6F6C65723A2000418F
:10FFCE0075746F204843004F4646200D0A004D4F72
:10FFDE0044453A20004F4E200D0A004F4646202C35
:10FFEE00004F4E202C00436F6F6C0048656174000B
:01FFFE000002
:020000040020DA
:08000000FFFFFFFFFFFFFFFF00
:020000040030CA
:0E000000FF011F1FFF8385FF0FC00FE00F40A1
:00000001FF
